:020000040800F2
:10000000684500206902000809360008BF2F000873
:1000100005360008A7060008F146000800000000A9
:10002000000000000000000000000000D1010008F6
:10003000D909000800000000150200087D3F0008F3
:10004000830200088302000883020008830200087C
:100050008302000883020008DB090008E5090008A4
:1000600083020008EF090008830200086509000800
:100070008302000883020008830200087509000853
:10008000830200088302000883020008830200083C
:10009000830200088302000883020008830200082C
:1000A00083020008FD3F0008830200088302000865
:1000B000830200088302000883020008830200080C
:1000C00083020008830200088302000883020008FC
:1000D00083020008E146000883020008830200084A
:1000E00083020008830200088302000800F002F87F
:1000F00000F05FF80AA090E8000C82448344AAF163
:100100000107DA4501D100F054F8AFF2090EBAE860
:100110000F0013F0010F18BFFB1A43F0010318473B
:1001200080A00000A0A000000A444FF0000C10F8CE
:10013000013B13F0070408BF10F8014B1D1108BF65
:1001400010F8015B641E05D010F8016B641E01F805
:10015000016BF9D113F0080F1EBF10F8014BAD1C55
:100160000C1B09D16D1E58BF01F801CBFAD505E073
:1001700014F8016B01F8016B6D1EF9D59142D6D3CD
:10018000704700000023002400250026103A28BFF5
:1001900078C1FBD8520728BF30C148BF0B607047F9
:1001A000642900F0C980002070471FB51FBD10B53D
:1001B00010BD00F03EFA1146FFF7F7FF04F00CFD0A
:1001C00000F05CFA03B4FFF7F2FF03BC00F064FA3E
:1001D000224B19680868B0E8F00F80F30988BFF374
:1001E0006F8F4FF0000080F311884EF00D0E7047B6
:1001F0000000000006480068006880F3088862B6C6
:1002000061B6BFF34F8FBFF36F8F00DF00BF00BF3A
:1002100008ED00E0EFF30980BFF36F8F0F4B1A6812
:1002200020E9F00F106008B54FF0500080F31188FE
:10023000BFF34F8FBFF36F8F06F0A2FB4FF00000AC
:1002400080F31188BDE8084019680868B0E8F00F2D
:1002500080F30988BFF36F8F704700BF4001002013
:10026000EFF30580704700000948804709480047C0
:10027000FEE7FEE7FEE7FEE7FEE7FEE7FEE7FEE756
:10028000FEE7FEE704480549054A064B70470000B3
:10029000F93F0008ED000008683F00206845002095
:1002A00068410020684100200FB41CB5074B06AA26
:1002B0007B4469460090059800F071F9002069467A
:1002C00000F080F91CBC5DF814FB00001103000075
:1002D0002DE9F0410E460446002020622046E168E8
:1002E000884730B3252805D0D4E901219047206AFA
:1002F000401CF2E7E168204600278847050018D037
:10030000A5F14100192802D820354FF40067324684
:10031000294620462760FFF743FF40B1012804D05B
:10032000F61D26F007060836D8E7361DD6E728461C
:10033000DAE7206ABDE8F0812DE9F04106460024A5
:1003400010687529314616A510D0AFF3008000283B
:1003500002DA404213A507E031688A0701D512A5E9
:1003600002E0490704D511A5012401E0AFF30080A4
:1003700000210A2206F1240709E0B0FBF2FCB0FBE1
:10038000F2F302FB1C00303078541846491C002858
:10039000F3D123462A463046BDE8F04100F0A1B82B
:1003A000000000002D0000002B00000020000000D5
:1003B000032A40F2308010F0030C00F0158011F891
:1003C000013BBCF1020F624498BF11F801CB00F869
:1003D000013B38BF11F8013BA2F1040298BF00F8BD
:1003E00001CB38BF00F8013B11F0030300F0EF80B0
:1003F000083AC0F0088051F8043B083A51F804CBA1
:10040000A0E80810F5E7121D5CBF51F8043B40F866
:10041000043BAFF30080D20724BF11F8013B11F871
:1004200001CB48BF11F8012B24BF00F8013B00F8B5
:1004300001CB48BF00F8012B704702F0FF0343EAED
:10044000032242EA024200F002B84FF000020429FF
:10045000C0F0128010F0030C00F01B80CCF1040CF3
:10046000BCF1020F18BF00F8012BA8BF20F8022B27
:10047000A1EB0C0100F00DB85FEAC17C24BF00F8CD
:10048000012B00F8012B48BF00F8012B70474FF0FB
:10049000000200B5134694469646203922BFA0E8D4
:1004A0000C50A0E80C50B1F12001BFF4F7AF0907E0
:1004B00028BFA0E80C5048BF0CC05DF804EB8900D1
:1004C00028BF40F8042B08BF704748BF20F8022B14
:1004D00011F0804F18BF00F8012B7047704770472C
:1004E00070472DE9F0470D4699469246044600F1C3
:1004F00024080168880604D5E06921F01001216014
:1005000000E00120A84201DD471B00E00027A169AF
:100510007A1902EB0900081AA0612078C00602D4FB
:100520002046AFF30080002608E0D4E901211AF844
:1005300006009047206A401C761C20624E45F4DB82
:100540002078C0060AD52046AFF3008006E0D4E943
:10055000012130209047206A401C2062381EA7F1FC
:100560000107F4DC07E0D4E9012118F80500904701
:10057000206A401C2062281EA5F10105F3DC2046FC
:10058000AFF300802078000602D50220BDE8F08796
:100590000120FBE701694A1C02610878704700B539
:1005A0008FB0CDE901310021059105497944CDE9AC
:1005B000031011466846FFF78BFE0FB000BD000028
:1005C000E5FFFFFF0A6802F8010B0A60704710B5EB
:1005D000203AC0F00B80B1E81850203AA0E818503B
:1005E000B1E81850A0E81850BFF4F5AF5FEA027CFC
:1005F00024BFB1E81850A0E8185044BF18C918C06B
:10060000BDE810405FEA827C24BF51F8043B40F80B
:10061000043B08BF7047D20728BF31F8023B48BFF0
:1006200011F8012B28BF20F8023B48BF00F8012B2E
:100630007047754600F02CF8AE46050069465346F3
:1006400020F00700854618B020B5FFF71BFEBDE877
:1006500020404FF000064FF000074FF000084FF029
:10066000000B21F00701AC46ACE8C009ACE8C009BA
:10067000ACE8C009ACE8C0098D46704710B5044627
:10068000AFF300802046BDE81040FFF79BBD00009F
:1006900000487047083F002001491820ABBEFEE724
:1006A00026000200704700BFFEE700001FB50020D3
:1006B0000090019002900390012000900020019092
:1006C00002200390002002906946024800F07EFB61
:1006D0001FBD0000000801401FB5002000900190E0
:1006E00002900390012000900190022003900020CE
:1006F00002906946014800F069FB1FBD00080140F7
:1007000070B5604800210160017105F0A7FD00F09F
:100710000FF95D4800685D49B0FBF1F05C4949683C
:10072000B1FBF0F50CE0584800685849B0FBF1F017
:1007300057494968B1FBF0F0401B642800D99CE0A0
:100740000121544800F0D2FC0128ECD04E4800684A
:100750004E49B0FBF1F04E494968B1FBF0F50CE0B1
:10076000494800684949B0FBF1F049494968B1FB83
:10077000F0F0401B642800D97FE00121454800F0DB
:10078000B5FC0028ECD0404800684049B0FBF1F0CF
:100790003F494968B1FBF0F50CE03B4800683B4934
:1007A000B0FBF1F03A494968B1FBF0F0401B642816
:1007B00000D962E00121374800F098FC0128ECD014
:1007C000002454E000264FE02F4800682F49B0FB7A
:1007D000F1F02F494968B1FBF0F50CE02A480068B8
:1007E0002A49B0FBF1F02A494968B1FBF0F0401BFF
:1007F000642800D941E00121264800F077FC002858
:10080000ECD02048005D4006000E1E490855282007
:1008100004F064F801211F4800F068FC012805D1AC
:100820001848005D40F00100164908551648006858
:100830001649B0FBF1F016494968B1FBF0F50CE040
:10084000114800681149B0FBF1F011494968B1FB4A
:10085000F0F0401B642800D90FE001210D4800F0A2
:1008600045FC0128ECD0761C082EADDB641C052C61
:10087000A8DB05F01DFD002070BD05F019FD01206D
:10088000FAE70000A80000203C01002040420F00D1
:10089000001000E0000801402DE9F0470646FFF790
:1008A0002FFF10B10120BDE8F087204800781F49D4
:1008B000497808441D49897808441C49C978084486
:1008C00000F0FF0919480079484501D00220EAE705
:1008D000164840781549097840EA01280A2098FB13
:1008E000F0F087B2642F01DC777001E00320DAE7D3
:1008F0000E48C0780D49897840EA012004B204F41A
:10090000004018B1C4F30E04604204B20A2094FB04
:10091000F0F005B215F1280F04DB502D02DC68B2AF
:10092000307001E00320BEE70020BCE7A8000020F3
:1009300010B5FFF7D1FE00220121094800F0E8FBC5
:100940004FF47A7003F0CAFF01221146044800F008
:10095000DFFB1E2003F0C2FFFFF7A8FE10BD000062
:100960000008014010B5024800F0CCF810BD0000AE
:10097000D003002010B5024800F0C4F810BD0000FC
:100980005C04002030B590F840500124AC40C56BA9
:100990006C60046863604468102C04D10468A26031
:1009A0000468E16003E00468A1600468E26030BDAF
:1009B0000748006840F0807005490860002005493C
:1009C00048600846006840F0010008607047000079
:1009D000FCED00E0001000E0704710B5012000F0D1
:1009E000E7F910BD10B5022000F0E2F910BD10B516
:1009F000082000F0DDF910BD72B600BFFEE7014629
:100A0000002291F82100022808D00420886300BF4A
:100A1000002081F8200000BF0120704708680068AE
:100A200020F00E000B6818600868006820F00100D4
:100A30000B68186091F8403001209840CB6B5860EB
:100A4000012081F8210000BF002081F8200000BFB4
:100A50001046E2E770B50446002594F8210002280C
:100A600003D00420A063012548E02068006820F03E
:100A70000E00216808602068006820F001002168ED
:100A800008601F492068884201D1012026E01C49E6
:100A900014312068884201D110201FE01849283104
:100AA0002068884201D1801518E015493C31206842
:100AB000884201D1801411E01149503120688842E8
:100AC00002D14FF4803009E00D496431206888423A
:100AD00002D14FF4801001E04FF0807008490839CE
:100AE0004860012084F8210000BF002084F8200025
:100AF00000BF606B10B12046616B8847284670BD0F
:100B00000800024070B50446E06B0568206806687E
:100B100094F84010042088402840002846D006F071
:100B20000400002842D02068006800F0200028B9A6
:100B30002068006820F00400216808605749206898
:100B4000884201D1042027E05449143120688842AA
:100B500001D1402020E0514928312068884201D14C
:100B6000001519E04D493C312068884202D14FF40C
:100B7000804011E0494950312068884202D14FF449
:100B8000802009E0454964312068884202D14FF451
:100B9000800001E04FF08060404908394860E06A19
:100BA00000287AD02046E16A884776E094F8401021
:100BB000022088402840A0B306F0020088B32068D5
:100BC000006800F0200040B92068006820F00A00AA
:100BD00021680860012084F821003049206888429B
:100BE00001D1022028E02D4914312068884201D12A
:100BF000202021E0294928312068884201D1401570
:100C00001AE026493C312068884202D14FF4005056
:100C100012E0224950312068884203D14FF400305D
:100C20000AE017E01D4964312068884202D14FF480
:100C3000001001E04FF0007018490839486000BF0B
:100C4000002084F8200000BFA06A30B32046A16ACB
:100C5000884722E094F84010082088402840E0B1FE
:100C600006F00800C8B12068006820F00E00216876
:100C7000086094F8401001208840E16B4860012032
:100C8000A06384F8210000BF002084F8200000BF8A
:100C9000206B10B12046216B884770BD08000240D0
:100CA0000146002209B901207047164B0868C01A96
:100CB0001423B0FBF3F08000086412480838C863BE
:100CC000022081F821000868026843F6F070824330
:100CD000D1E901031843CB6818430B6918434B69EA
:100CE00018438B691843CB691843024308680260B4
:100CF00000208863012081F82100002081F8200075
:100D000000BFD1E7080002402DE9F04104460D463E
:100D100016461F464FF0000800BF94F82000012837
:100D200002D10220BDE8F081012084F8200000BF3C
:100D300094F8210001282CD1022084F82100002001
:100D4000A0632068006820F00100216808603B462D
:100D5000324629462046FFF715FEE06A30B120688A
:100D6000006840F00E00216808600BE02068006811
:100D700020F00400216808602068006840F00A0044
:100D8000216808602068006840F001002168086060
:100D900006E000BF002084F8200000BF4FF00208EA
:100DA0004046BFE710B50446204603F0D9FC10BD0D
:100DB00010B5044604480068204020B10248046091
:100DC0002046FFF7EFFF10BD140401402DE9F8475E
:100DD0000346002294466EE14FF0010808FA02F43F
:100DE000D1F8008008EA0400A0427DD1DFF8DCA23F
:100DF000D1F80480A8EB0A09D0453AD014DCB8F148
:100E0000030F50D009DCB8F1000F31D0B8F1010F59
:100E10001CD0B8F1020F49D120E0B8F1110F18D061
:100E2000B8F1120F42D11EE0B9F5881F25D006DCBB
:100E3000B9F5803F20D0B9F5801F37D11AE0B9F558
:100E4000001F18D0B9F5041F30D117E0D1F80CC03D
:100E50002DE0D1F80C8008F1040C28E0D1F80C80CA
:100E600008F1080C23E0D1F80C8008F10C0C1EE00E
:100E700000BF00BF00BF00BF00BF00BFD1F80880A7
:100E8000B8F1000F02D14FF0040C0BE0D1F808804C
:100E9000B8F1010F03D14FF0080C1C6102E04FF0D4
:100EA000080C5C6103E04FF0000C00E000BF00BFE5
:100EB000FF2801D8984601E003F104084646FF28C0
:100EC00002D84FEA820803E0A2F108084FEA880836
:100ED0004746D6F800804FF00F0909FA07F928EACB
:100EE00009080CFA07F900E088E048EA0908C6F8A2
:100EF0000080D1F8048008F08058B8F1805F7DD17F
:100F000000BFDFF8CC81D8F8188048F00108DFF87E
:100F1000C091C9F81880C846D8F8188008F00108B0
:100F2000CDF8008000BF00BF4FEAB9384FEA920900
:100F300058F829504FEA82784FEA18794FF00F0895
:100F400008FA09F825EA0805DFF88881434502D147
:100F50004FF0000816E0DFF88081434502D14FF0E2
:100F600001080FE0DFF87481434502D14FF0020819
:100F700008E0DFF86C81434502D14FF0030801E03F
:100F80004FF004084FEA82794FEA197908FA09F814
:100F900048EA0505DFF84C814FEA920948F82950E4
:100FA000D1F8048008F48018B8F5801F0AD1DFF862
:100FB0003881D8F8008048EA0008DFF82C91C9F899
:100FC000008009E0DFF82081D8F8008028EA0008D6
:100FD000DFF81491C9F80080D1F8048008F40018F3
:100FE000B8F5001F10D1DFF8008108F10408D8F827
:100FF000008048EA0008DFF8F09000E05AE009F1CC
:101000000409C9F800800DE0DFF8DC8008F104086D
:10101000D8F8008028EA0008DFF8CC9009F104092C
:10102000C9F80080D1F8048008F40038B8F5003F12
:101030000ED1DFF8B480A8F10408D8F8008048EA9F
:101040000008DFF8A490A9F10409C9F800800DE0B8
:10105000DFF89480A8F10408D8F8008028EA000896
:10106000DFF88490A9F10409C9F80080D1F8048060
:1010700008F48038B8F5803F0ED1DFF86C80A8F115
:101080000808D8F8008048EA0008DFF85C90A9F169
:101090000809C9F800800DE0DFF84C80A8F10808C5
:1010A000D8F8008028EA0008DFF83C90A9F1080988
:1010B000C9F80080521CD1F8008028FA02F8B8F173
:1010C000000F7FF489AEBDE8F88700000000111022
:1010D0000010024000080140000C014000100140D7
:1010E00000140140080001400804014002469368D2
:1010F0000B400BB1012000E00020704710B5C26822
:1011000021EA020302EA010443EA0443036110BD39
:101110000AB1016101E00B040361704701480068F6
:10112000704700003001002070B504460CB9012062
:1011300070BD94F83D0028B9002084F83C0020469A
:1011400000F06EFA242084F83D002068006820F04A
:101150000100216808602068006840F400402168B0
:1011600008602068006820F400402168086000F0F2
:1011700081FC05465C496068884206D85B48854228
:1011800001D2012007E0002005E05948854201D244
:10119000012000E00020012800D1C9E75548B5FB37
:1011A000F0F62068406820F03F0030432168486036
:1011B0004D496068884201D8701C07E04FF4967072
:1011C00070434FF47A71B0FBF1F0401C2168096A5A
:1011D00021F03F0108432168086243496068884262
:1011E00014D8681E61684900B0FBF1F0401CC0F3E0
:1011F0000B00042801D204203DE0681E616849000C
:10120000B0FBF1F0401CC0F30B0034E0A06838B92B
:10121000681E616801EB4101B0FBF1F0401C0AE07F
:10122000681E616801EBC10202EB0111B0FBF1F035
:10123000401C40F48040C0F30B0008B901201AE0C4
:10124000A06848B9681E616801EB4101B0FBF1F08C
:10125000401CC0F30B000CE0681E616801EBC1028A
:1012600002EB0111B0FBF1F0401CC0F30B0040F4A5
:10127000804040F400402168C9694CF6FF729143F8
:1012800008432168C861D4E9070108432168096857
:1012900021F0C001084321680860D4E90310084325
:1012A0002168896848F2FF329143084321688860C9
:1012B000D4E9050108432168C96821F0FF0108430A
:1012C0002168C8602068006840F00100216808605B
:1012D00000202064202084F83D000020206384F852
:1012E0003E0000BF24E70000A086010080841E00AD
:1012F00000093D0040420F002DE9F84F04460F461B
:1013000090461E46FFF70AFF05464FF0000994F885
:101310003D0020287ED119230122634920460095F3
:1013200001F001FF10B10220BDE8F88F00BF94F872
:101330003C00012801D10220F6E7012084F83C009E
:1013400000BF2068006800F0010028B9206800682C
:1013500040F00100216808602068006820F4006007
:1013600021680860242084F83D00002020644F4854
:10137000E06200BF2068006840F480702168086067
:10138000334600224FF001112046009501F0CBFEBC
:1013900058B12068006800F48070B0F5807F02D1F9
:1013A0004FF4007020640320BEE707F0FE002168C0
:1013B0000861FFF7B3FE054620684069C0F3400AA4
:1013C00020684069C0F3802B10E0FFF7A7FE401BA8
:1013D000B04200D816B9A02084F83D0020684069CA
:1013E000C0F3400A20684069C0F3802B94F83D00A8
:1013F000A02805D0BAF1000F02D1BBF1000FE4D054
:10140000202084F83D0020684069C0F3400028B3E4
:10141000206800E045E0006840F400702168086042
:1014200000BF00200090206840690090206880691B
:10143000009000BF00BF192301221B4920460095E0
:1014400001F071FE08B101206EE7202084F83D0014
:1014500000BF002084F83C0000BF65E720680068FA
:1014600040F40070216808606FF480602168486172
:10147000192301220C492046009501F054FE08B1C1
:10148000012051E709F10109C145FFF473AF2020A4
:1014900084F83D0000BF002084F83C0000BF01201C
:1014A00042E7022040E70000020010000000FFFFBA
:1014B0002DE9F8430446894616461F46DDF820808C
:1014C000FFF72CFE054694F83D0020287ED1192315
:1014D000012251492046009501F025FE10B102205D
:1014E000BDE8F88300BF94F83C00012801D1022038
:1014F000F6E7012084F83C0000BF2068006800F097
:10150000010028B92068006840F0010021680860E7
:101510002068006820F4006021680860212084F8B9
:101520003D00102084F83E0000202064666267853C
:10153000608D20853948E0622B4642464946204668
:1015400001F05EFD08B10120CAE700BF0020009055
:1015500020684069009020688069009000BF00BF4B
:1015600044E02A464146204601F0B9FE50B1206CC5
:10157000042805D12068006840F4007021680860E4
:101580000120ADE7606A007821680861606A401C4C
:101590006062608D401E6085208D401E2085206821
:1015A0004069C0F3800070B1208D60B1606A00783E
:1015B00021680861606A401C6062608D401E608521
:1015C000208D401E20852A46414600E022E020462C
:1015D00001F076FD50B1206C042805D12068006828
:1015E00040F4007021680860012079E7208D002810
:1015F000B7D12068006840F400702168086020209E
:1016000084F83D00002084F83E0000BF84F83C00D0
:1016100000BF65E7022063E7020010000000FFFF43
:1016200010B586B004460020029003900490059007
:1016300015492068884225D100BF1448806940F0D0
:101640000800124988610846806900F0080001908E
:1016500000BF00BFC020029012200390032005901D
:1016600002A90B48FFF7B2FB00BF0848C06940F46D
:1016700000100649C8610846C06900F400100190D6
:1016800000BF00BF06B010BD005400400010024073
:10169000000C0140034800680349097808440149E7
:1016A00008607047300100203801002010B508485C
:1016B000006840F0100006490860032000F0D8F8E8
:1016C0000F2000F007F800F055F8002010BD0000D2
:1016D00000200240F0B587B0044600260027002510
:1016E00000BF1F48806940F400601D4988610846BA
:1016F000806900F40060009000BF00BF01A902A84B
:1017000000F090F900F0C6F906461648B6FBF0F076
:10171000471E15481549086040F2E7311348C1607B
:101720004760002101618160816100F071FC054624
:1017300095B90E4800F0DAFC05466DB9192000F0A5
:1017400049F8102C07D200222146192000F052F847
:101750000748046000E00125284607B0F0BD0000FE
:101760000010024040420F00002C0140EC05002018
:101770003401002008B500BF1448806940F0010022
:10178000124988610846806900F00100009000BF9E
:1017900000BF00BF0846C06940F08050C8610846DD
:1017A000C06900F08050009000BF00BF00220F21F0
:1017B000901E00F01FF800BF0549486820F0E06067
:1017C00040F00070486000BF08BD000000100240FB
:1017D0000000014001460846002809DB00F01F0315
:1017E00001229A4043099B0003F1E023C3F8002142
:1017F00000BF70472DE9F05F80460D461646002772
:1018000002F078FF074639462A46334601F00700C2
:10181000C0F1070ABAF1040F02D94FF0040A01E03F
:10182000C0F1070AD14600F1040ABAF1070F02D24B
:101830004FF0000A01E0A0F1030AD4464FF0010A7C
:101840000AFA09FAAAF1010A0AEA020A0AFA0CFAE1
:101850004FF0010B0BFA0CFBABF1010B0BEA030B86
:101860004AEA0B042146404602F04CFFBDE8F09FD7
:1018700000BF00F00702064B19684FF6FF0319403E
:10188000044B0B4343EA0221014B196000BF704730
:101890000CED00E00000FA0570B504460D460CB9E9
:1018A000012070BD5A48006800F00700A8420ED21F
:1018B0005748006820F0070028435549086008464B
:1018C000006800F00700A84201D00120E9E7207875
:1018D00000F0020002281DD1207800F00400042846
:1018E00005D14C48406840F4E0604A49486020789F
:1018F00000F00800082805D14648406840F46050D0
:10190000444948604348406820F0F000A16808431B
:1019100040494860207800F0010078B360680128F1
:1019200006D13C48006800F4003090B90120B8E7C7
:101930006068022806D13748006800F0007040B99E
:101940000120AEE73348006800F0020008B901202A
:10195000A7E73048406820F00300616808432D493C
:101960004860FFF7DBFB064609E0FFF7D7FB801B6B
:1019700041F28831884202D9032092E707E02548E6
:10198000406800F00C006168B0EB810FEDD1204899
:10199000006800F00700A8420ED91D48006820F03A
:1019A000070028431A4908600846006800F007004D
:1019B000A84201D0012074E7207800F00400042838
:1019C00007D11448406820F4E060E16808431149F9
:1019D0004860207800F00800082808D10D484068C9
:1019E00020F46050216940EAC1000A49486000F0D3
:1019F00061F808494968C1F30311074A515CC840BE
:101A00000649086006480068FFF764FE002048E7C2
:101A1000002002400010024060A100083C010020AC
:101A2000340100200F2202600D4A526802F00302C6
:101A300042600B4A526802F0F0028260084A526823
:101A400002F4E062C260064A526802F46052D208B0
:101A50000261044A126802F007020A60704700003F
:101A6000001002400020024001480068704700005A
:101A70003C01002000B5FFF7F7FF04494968C1F3B6
:101A80000221034A515CC84000BD00000010024022
:101A900070A1000800B5FFF7E7FF04494968C1F3EA
:101AA000C221034A515CC84000BD00000010024042
:101AB00070A1000870B5002100220024002300203E
:101AC000134D696801F00C05F5B1042D02D0082D05
:101AD00019D101E00F4819E00F4DC1F38346AB5D0A
:101AE00001F4803555B10A4D6D68C5F340450B4E84
:101AF000725D084D5D43B5FBF2F402E0084D03FB57
:101B000005F4204602E000BF024800BF00BF70BDE0
:101B10000010024000127A004EA100085EA10008E9
:101B200000093D00F8B504460CB90120F8BD207845
:101B300000F00100002878D0F848406800F00C0060
:101B400004280CD0F548406800F00C00082811D19A
:101B5000F248406800F48030B0F5803F0AD1EF4889
:101B6000006800F4003000285FD0606800285CD175
:101B70000120DBE700BF6068B0F5803F06D1E74891
:101B8000006840F48030E549086028E0606858B992
:101B9000E248006820F48030E049086008460068A8
:101BA00020F4802008601AE06068B0F5A02F0BD107
:101BB000DA48006840F48020D84908600846006888
:101BC00040F4803008600AE0D448006820F4803097
:101BD000D24908600846006820F48020086000BFF1
:101BE000606888B1FFF79AFA054606E0FFF796FAB3
:101BF000401B642801D9032098E7C848006800F416
:101C000000300028F2D010E0FFF788FA054606E021
:101C1000FFF784FA401B642801D9032086E7BF48F8
:101C2000006800F400300028F2D1207800F00200B3
:101C3000022857D1B948406800F00C0050B1B748AD
:101C4000406800F00C00082818D1B448406800F43F
:101C5000803098B9B148006800F0020020B12069D6
:101C6000012801D0012061E7AC48006820F0F800AD
:101C7000616940EAC100A949086033E02069E8B120
:101C80000120A7490860FFF749FA054606E0FFF77B
:101C900045FA401B022801D9032047E79F48006806
:101CA00000F002000028F2D09C48006820F0F80004
:101CB000616940EAC1009949086013E00020984931
:101CC0000860FFF72BFA054606E0FFF727FA401BEE
:101CD000022801D9032029E79048006800F002009B
:101CE0000028F2D1207800F0080008282DD1A06942
:101CF000B8B101208B490860FFF710FA054606E0ED
:101D0000FFF70CFA401B022801D903200EE7834895
:101D1000406A00F002000028F2D0012001F0CAFC65
:101D200013E000207F490860FFF7F8F9054606E058
:101D3000FFF7F4F9401B022801D90320F6E67748A3
:101D4000406A00F002000028F2D1207800F0040080
:101D5000042873D100277148C06900F0805070B921
:101D600000BF6E48C06940F080506C49C8610846A9
:101D7000C06900F08050009000BF00BF01276A4892
:101D8000006800F48070B0B96748006840F4807063
:101D900065490860FFF7C2F9054606E0FFF7BEF99E
:101DA000401B642801D90320C0E65F48006800F4A6
:101DB00080700028F2D000BFE068012806D15748A3
:101DC000006A40F001005549086227E0E06858B910
:101DD0005248006A20F00100504908620846006A33
:101DE00020F00400086219E0E06805280BD14B4898
:101DF000006A40F00400494908620846006A40F061
:101E0000010008620AE04548006A20F001004349E9
:101E100008620846006A20F00400086200BFE0681B
:101E2000A0B1FFF77BF9054609E0FFF777F9401B02
:101E300041F28831884202D9032077E622E0374810
:101E4000006A00F002000028EFD012E0FFF766F908
:101E5000054608E0FFF762F9401B41F288318842ED
:101E600001D9032062E62D48006A00F00200002834
:101E7000F0D1012F05D12948C06920F080502749B1
:101E8000C86100BFE069C8B32448406800F00C0096
:101E9000082860D0E069022848D10020204908665F
:101EA000FFF73CF9054606E0FFF738F9401B02282A
:101EB00001D903203AE61948006800F000700028B4
:101EC000F2D1206AB0F5803F07D11448406820F471
:101ED0000030A168084311494860D4E9080108436B
:101EE0000E49496821F4741108430C4948600120E7
:101EF0000B490866FFF712F9054607E03DE0FFF7DA
:101F00000DF9401B022801D903200FE603480068A1
:101F100000F000700028F2D02FE000000010024016
:101F200000004242800442420070004000201449F8
:101F30000866FFF7F3F8054606E0FFF7EFF8401BE9
:101F4000022801D90320F1E50E48006800F0007076
:101F50000028F2D111E0E069012800D1E6E5094846
:101F6000466806F48031206A814204D106F470117B
:101F7000606A814201D00120D8E50020D6E500004A
:101F800000004242001002407047704730B50246E0
:101F90000B4600BF92F83C00012801D1022030BD61
:101FA000012082F83C0000BF022082F83D0010684A
:101FB00044681068816824F070041868044310684D
:101FC0004460104D1068A8420BD01068B0F1804FEB
:101FD00007D00D4D1068A84203D00C4D1068A842E0
:101FE00005D121F08001586801431068816001200B
:101FF00082F83D0000BF002082F83C0000BF00BF17
:10200000CDE70000002C0140000400400008004023
:1020100010B504460CB9012010BD94F83D0028B954
:10202000002084F83C00204600F026F8022084F8C6
:102030003D00211D206801F0E9FF012084F84600E1
:1020400000BF84F83E0001213F200155402001558A
:102050004120015500BF00BF012084F84200432009
:102060000155442001554520015500BF012084F849
:102070003D000020D0E7000038B504462068B0F1EC
:10208000804F2BD100BF1648C06940F001001449B1
:10209000C8610846C06900F00100009000BF00BFA1
:1020A0001048114908601020486000210E488160E6
:1020B0008021C16049000161890041610021816185
:1020C0004FF44051C161FEF7EBFD08B1FEF794FCFF
:1020D00000BF0549E1620846446200BF38BD000008
:1020E0000010024008000240D0030020014691F891
:1020F0003D00012801D001207047022081F83D00F9
:102100000868C06840F001000B68D860124B08688E
:1021100098420BD00868B0F1804F07D00F4B086889
:10212000984203D00E4B086898420CD1086880682A
:1021300000F00702062A0CD00868006840F0010091
:102140000B68186005E00868006840F001000B6843
:1021500018600020D0E70000002C0140000400407F
:10216000000800402DE9F04104460D46002700BF5D
:1021700094F83C00012802D10220BDE8F081012042
:1021800084F83C0000BF022084F83D002068866887
:1021900026F0770626F47F46206886602868502857
:1021A00033D00CDC202850D004DC00284BD0102881
:1021B00051D149E0302849D040284CD139E060283D
:1021C0002DD0702807D0B0F5805F03D0B0F5005F48
:1021D00041D10DE041E0D5E902136A68206801F0C1
:1021E000EBFF2068866846F077062068866034E05A
:1021F000D5E902136A68206801F0DEFF2068806874
:1022000040F480402168886027E0EA6869682068B7
:1022100002F0A2F85021206801F0D9FF1DE0EA6821
:102220006968206802F0ABF86021206801F0CFFFF8
:1022300013E0EA686968206802F08EF8402120689F
:1022400001F0C5FF09E000BF00BF00BF296820689A
:1022500001F0BDFF01E0012700BF00BF012084F8AD
:102260003D0000BF002084F83C0000BF384684E7F2
:102270002DE9F04104460D4614B90120BDE8F08176
:1022800094F83D0028B9002084F83C00204600F076
:1022900051F8022084F83D002068806844F207016C
:1022A000884321688860211D206801F0AFFE206806
:1022B000D0F80880206886692068076A286840EAA4
:1022C000080840F203308643A969A86840EA012063
:1022D000064340F60C4086434FF2F0008643E9691E
:1022E000E86840EA0120064328690001296A40EABB
:1022F0000130064327F022076969686840EA011047
:1023000007432068C0F8088020688661206807625B
:10231000012084F8460084F83E0001213F20015549
:10232000012084F8420043200155012084F83D003B
:102330000020A3E710B586B0044600200290039069
:102340000490059014492068884223D100BF1348A7
:10235000C06940F002001149C8610846C06900F038
:102360000200019000BF00BF00BF0846806940F036
:10237000040088610846806900F00400019000BFF5
:1023800000BFC020029000200390049002A90448DE
:10239000FEF71CFD06B010BD000400400010024016
:1023A000000801402DE9F04304460D4694F83E60D4
:1023B0003F20075D94F84280432010F804906DB9E7
:1023C000012E02D1B8F1010F02D00120BDE8F08347
:1023D000022084F83E0084F8420025E0042D0CD150
:1023E000012F02D1B9F1010F01D00120EEE7022146
:1023F0003F2001554320015516E0012E07D1012F42
:1024000005D1B8F1010F02D1B9F1010F01D00120BE
:10241000DCE7022084F83E0002213F200155022023
:1024200084F842004320015515B1042D0CD105E07C
:1024300001220021206801F02BFE10E0012204217E
:10244000206801F025FE0AE001220021206801F049
:102450001FFE01220421206801F01AFE00BF00BF08
:102460002068006840F00100216808600020ADE7A6
:102470007047704770B504462068C56820680669D3
:1024800006F00200022819D105F00200022815D139
:10249000401F21680861012020772068806900F0D2
:1024A000030018B12046FFF7E4FF05E0204600F0E6
:1024B000C3F8204600F078F90020207706F00400E9
:1024C000042819D105F00400042815D1C04321685F
:1024D0000861022020772068806900F4407018B1FC
:1024E0002046FFF7C6FF05E0204600F0A5F820468D
:1024F00000F05AF90020207706F00800082819D1CA
:1025000005F00800082815D1C0432168086104209F
:1025100020772068C06900F0030018B12046FFF75B
:10252000A8FF05E0204600F087F8204600F03CF9BF
:102530000020207706F01000102819D105F01000B7
:10254000102815D1C0432168086108202077206831
:10255000C06900F4407018B12046FFF78AFF05E01B
:10256000204600F069F8204600F01EF90020207790
:1025700006F0010048B105F0010030B16FF0010034
:1025800021680861204600F0A9FA06F08000802842
:1025900009D105F08000802805D1C0432168086179
:1025A0002046FFF7F1FC06F04000402809D105F075
:1025B0004000402805D1C04321680861204600F052
:1025C00099FA06F02000202809D105F020002028E3
:1025D00005D1C043216808612046FFF7D6FC70BDD5
:1025E00010B586B004462068B0F1804F1DD100BF01
:1025F0000F48806940F004000D49886108468069F1
:1026000000F00400019000BF00BF00200290039082
:10261000049005900420029002200390032005906E
:1026200002A90448FEF7D2FB00BF06B010BD0000AF
:10263000001002400008014070472DE9F0410446B7
:102640000D461646002700BF94F83C00012802D131
:102650000220BDE8F081012084F83C0000BF36B1C3
:10266000042E1BD0082E31D00C2E5ED145E0294619
:10267000206801F0B5FD2068806940F008002168FD
:1026800088612068806920F00400216888612068E2
:102690008069296908432168886148E029462068E3
:1026A00001F0CEFD2068806940F4006021688861F7
:1026B0002068806920F480602168886120688069D2
:1026C000296940EA01202168886130E029462068B4
:1026D00001F0EAFD2068C06940F008002168C86187
:1026E0002068C06920F004002168C8612068C069C2
:1026F000296908432168C86119E02946206801F06A
:1027000007FE2068C06940F400602168C861206845
:10271000C06920F480602168C8612068C0692969A7
:1027200040EA01202168C86101E0012700BF00BF25
:1027300000BF002084F83C0000BF384689E710B590
:1027400004460CB9012010BD94F83D0028B90020C2
:1027500084F83C00204600F025F8022084F83D0073
:10276000211D206801F052FC012084F8460000BFC2
:1027700084F83E0001213F200155402001554120B1
:10278000015500BF00BF012084F8420043200155DD
:10279000442001554520015500BF012084F83D002B
:1027A0000020D0E77047000010B504460821024819
:1027B00000F010F910BD0000400300207047000039
:1027C0002DE9F04704460D4616461F464FF0000817
:1027D00015B994F83E000BE0042D02D13F20005DB6
:1027E00006E0082D02D14020005D01E04120005D9F
:1027F000022801D1BDE8F08715B994F83E000BE03E
:10280000042D02D13F20005D06E0082D02D14020BA
:10281000005D01E04120005D012818D106B10FB92B
:102820000120E7E71DB9022084F83E0011E0042DE5
:1028300003D102213F2001550BE0082D03D10221D5
:102840004020015505E002214120015501E0012011
:10285000D0E735B1042D1FD0082D38D00C2D6CD108
:1028600050E05649606A81625549606AC1625549C3
:10287000606A0163216801F134023B463146606AB7
:10288000FEF742FA08B10120B4E72068C06840F4BE
:1028900000702168C86053E04849A06A81624849D5
:1028A000A06AC1624749A06A0163216801F1380248
:1028B0003B463146A06AFEF727FA08B1012099E7A6
:1028C0002068C06840F480602168C86038E03B49F7
:1028D000E06A81623A49E06AC1623A49E06A0163AA
:1028E000216801F13C023B463146E06AFEF70CFAF2
:1028F00008B101207EE72068C06840F400602168CC
:10290000C8601DE02D49206B81622D49206BC1629A
:102910002C49206B0163216801F140023B4631469E
:10292000206BFEF7F1F908B1012063E72068C06869
:1029300040F480502168C86002E04FF0010800BFF9
:1029400000BFB8F1000F36D101222946206801F0FE
:102950009FFB1D492068884201D1012000E0002032
:1029600028B12068406C40F4004021684864164952
:10297000206888420BD02068B0F1804F07D01349FF
:102980002068884203D01249206888420DD120680F
:10299000806800F00709B9F1060F0CD020680068C4
:1029A00040F001002168086005E02068006840F000
:1029B00001002168086040461CE70000B3400008A1
:1029C0001B4100085B410008002C0140000400404E
:1029D0000008004070B504460D46002635B1042DB0
:1029E0000ED0082D16D00C2D28D11DE02068C0680F
:1029F00020F400702168C860606AFEF72BF81FE0C1
:102A00002068C06820F480602168C860A06AFEF772
:102A100021F815E02068C06820F400602168C860D3
:102A2000E06AFEF717F80BE02068C06820F48050D9
:102A30002168C860206BFEF70DF801E0012600BF99
:102A400000BF002E46D100222946206801F020FB5D
:102A500021492068884201D1012000E0002090B186
:102A600000BF2068006A41F21111084050B9206887
:102A7000006A8910084028B92068406C20F40040A2
:102A80002168486400BF00BF2068006A41F211114C
:102A9000084050B92068006A8910084028B92068A9
:102AA000006820F001002168086000BF1DB9012006
:102AB00084F83E000EE0042D03D101213F20015592
:102AC00008E0082D03D101214020015502E0012139
:102AD00041200155304670BD002C014010B5044620
:102AE00003492068884201D1FEF7D4FD10BD0000E3
:102AF000002C014070477047704700002DE9F84FE7
:102B00000446206805682068C668206847694FF059
:102B10000009CA4605F00F09B9F1000F0AD105F006
:102B2000200038B106F0200020B1204601F08BFCD7
:102B3000BDE8F88FB9F1000F7BD007F0010018B99C
:102B400006F49070002874D005F0010030B106F44E
:102B5000807018B1606C40F00100606405F0040002
:102B600030B107F0010018B1606C40F00200606401
:102B700005F0020030B107F0010018B1606C40F0C0
:102B80000400606405F0080048B106F0200010B9A8
:102B900007F0010018B1606C40F008006064606CE0
:102BA000002845D005F0200028B106F0200010B123
:102BB000204601F048FC20684069C0F3801A606C30
:102BC00000F0080010B9BAF1000F2CD0204601F037
:102BD000F4FB2068406900F0400000B300BF00BF74
:102BE0002168143151E8001F21F0400021681431A0
:102BF00041E80002002AF3D100BFE06B50B17748F2
:102C0000E16B4863E06BFDF725FF88B1E06B416B3A
:102C100088470DE02046FFF76FFF09E009E02046F6
:102C2000FFF76AFF04E02046FFF766FF00206064BC
:102C30007EE7206B012877D105F01000002873D0C3
:102C400006F010000028FAD000BF00200090206895
:102C50000068009020684068009000BF00BF2068B6
:102C6000406900F0400000285FD0E06B00684068D9
:102C70001FFA80F8B8F1000F55D0A08D404552DD05
:102C8000A4F82E80E06B8069202843D000BF00BFED
:102C900021680C3151E8001F21F4807021680C314B
:102CA00041E80002002AF3D100BF00BF00BF216845
:102CB000143151E8001F21F001002168143141E86E
:102CC0000002002AF3D100BF00BF00BF2168143109
:102CD00051E8001F21F040002168143141E8000252
:102CE000002AF3D100BF202084F842000020206396
:102CF00000BF00BF21680C3151E8001F21F0100017
:102D000021680C3141E80002002AF3D100BFE06BDA
:102D1000FDF775FE02206063A08DE28D801A81B2FE
:102D20002046FFF7E8FE03E742E0A08DE18D401A60
:102D30001FFA80F8E08DD0B3B8F1000F37D000BF94
:102D400000BF21680C3151E8001F21F49070216808
:102D50000C3141E80002002AF3D100BF00BF00BFE0
:102D60002168143151E8001F21F00100216814315D
:102D700041E80002002AF3D100BF202084F842007D
:102D80000020206300BF00BF21680C3151E8001F04
:102D900021F0100021680C3141E80002002AF3D133
:102DA00000BF0220606341462046FFF7A4FEBFE655
:102DB00005F0800030B106F0800018B1204601F027
:102DC0005FFCB5E605F0400030B106F0400018B1F8
:102DD000204601F028FBABE600BFA9E6A7430008A8
:102DE00010B504460CB9012010BDA06900B100E087
:102DF00000BF94F8410028B9002084F84000204624
:102E000000F02AF8242084F841002068C06820F4EB
:102E100000502168C860204601F094FB20680069DA
:102E200020F49040216808612068406920F02A0061
:102E3000216848612068C06840F400502168C8607B
:102E400000206064202084F8410084F842000020C3
:102E5000606300BFC8E7000010B586B004460020DC
:102E600002900390049005902B492068884251D12C
:102E700000BF2A48806940F480402849886108469C
:102E8000806900F48040019000BF00BF00BF084689
:102E9000806940F0040088610846806900F0040001
:102EA000019000BF00BF481502900220039003204C
:102EB000059002A91A48FDF789FF4FF4806002903F
:102EC00000200390049002A91548FDF77FFF1548E4
:102ED0001549086000204860002113488160802166
:102EE000C160002101614161202181610902C1614C
:102EF000FDF7D6FE08B1FDF77FFD00BF0A48E0638D
:102F0000446200BF002205212520FEF773FC252026
:102F1000FEF760FC06B010BD003801400010024012
:102F200000080140580002405C04002070B50446CF
:102F30000D46164694F8420020280BD105B10EB973
:102F4000012070BD0020206332462946204601F052
:102F500077FBF6E70220F4E738B50446114920680C
:102F600088421ED110480178104802F0A3FF0020CB
:102F700000900F48006820B169460D48006803F0D2
:102F80003DFB012208490B48FFF7D0FF009838B1FC
:102F90004FF0805008490860BFF34F8FBFF36F8F29
:102FA00000BF38BD00380140FA000020E4040020D2
:102FB000F00000201404002004ED00E0704700BF82
:102FC000FEE7014608684069C0F38020B0B16FF4A5
:102FD00080600A68506100200863202081F83D006D
:102FE000002081F83E00086C40F00400086400BF37
:102FF000002081F83C0000BF012070470020FCE762
:103000002DE9F84304460D4617469846E66A082E11
:1030100004D0012E02D016F5803F06D1206800684A
:1030200040F480702168086008E0206B122805D108
:103030002068006840F48070216808603B460022E8
:103040004FF001112046CDF8008000F06CF860B11F
:103050002068006800F48070B0F5807F02D14FF4E2
:10306000007020640320BDE8F8832069B0F5804F2C
:1030700004D105F0FE002168086112E005F44070FB
:10308000F02141EAE0102168086143463A460B49C5
:10309000204600F0A7F808B10120E4E7E8B2216873
:1030A000086143463A460549891F204600F09AF8D0
:1030B00008B10120D7E70020D5E700000800010093
:1030C00070B504460D46164625E02046FFF779FF09
:1030D00008B1012070BD681CE8B1FEF71FF8801B25
:1030E000A84200D8BDB920684069C0F3800090B9FB
:1030F00000202063202084F83D00002084F83E005A
:10310000206C40F02000206400BF002084F83C00C8
:1031100000BF0120DEE720684069C0F3800000287E
:10312000D3D00020D6E72DE9F04104460D461746DE
:103130001E46DDF8188038E0701CA8B3FDF7EEFFDE
:10314000A0EB0800B04200D876BBC5F307400128C9
:103150000AD120684069A9B20840A9B2884201D1C9
:1031600001200BE0002009E020688069A9B2084036
:10317000A9B2884201D1012000E00020B84214D158
:1031800000202063202084F83D00002084F83E00C9
:10319000206C40F02000206400BF002084F83C0038
:1031A00000BF0120BDE8F081FFE7C5F3074001281B
:1031B0000AD120684069A9B20840A9B2884201D169
:1031C00001200BE0002009E020688069A9B20840D6
:1031D000A9B2884201D1012000E00020B842ABD062
:1031E0000020DFE72DE9F04104460D4616461F4654
:1031F00058E020684069C0F38020E8B1206800688A
:1032000040F40070216808606FF4806021684861B4
:1032100000202063202084F83D00002084F83E0038
:10322000206C40F00400206400BF002084F83C00C3
:1032300000BF0120BDE8F081701C90B3FDF76EFF68
:10324000C01BB04200D866BBC5F3074001280AD1B5
:1032500020684069A9B20840A9B2884201D1012082
:103260000BE0002009E020688069A9B20840A9B2FB
:10327000884201D1012000E0002090B900202063A5
:10328000202084F83D00002084F83E00206C40F0AF
:103290002000206400BF002084F83C0000BF012013
:1032A000C8E7FFE7C5F3074001280AD12068406955
:1032B000A9B20840A9B2884201D101200BE0002048
:1032C00009E020688069A9B20840A9B2884201D10A
:1032D000012000E0002000288BD00020AAE770B574
:1032E00004460D46164625E02046FFF76AFE08B163
:1032F000012070BD681CE8B1FDF710FF801BA842DB
:1033000000D8BDB920684069C0F3C01090B9002052
:103310002063202084F83D00002084F83E00206CCB
:1033200040F02000206400BF002084F83C0000BF73
:103330000120DEE720684069C0F3C0100028D3D028
:103340000020D6E708B500BF0E48406940F00100F4
:103350000C4948610846406900F00100009000BF38
:1033600000BF002205210B20FEF744FA0B20FEF7D8
:1033700031FA002205210F20FEF73CFA0F20FEF75C
:1033800029FA08BD0010024000B585B00020019068
:1033900002900390049000BF3248806940F004001E
:1033A000304988610846806900F00400009000BF41
:1033B00000BF00BF0846806940F0080088610846E9
:1033C000806900F00800009000BF00BF00BF084601
:1033D000806940F0100088610846806900F01000A4
:1033E000009000BF00BF00BF0846806940F0200089
:1033F00088610846806900F02000009000BF00BF8F
:103400004FF400500190012002900220049000200F
:10341000039001A91448FDF7D9FC0B200190134833
:1034200002900020039001A91148FDF7CFFC002273
:1034300005210620FEF7DEF90620FEF7CBF9002273
:1034400005210720FEF7D6F90720FEF7C3F9002271
:1034500005210920FEF7CEF90920FEF7BBF905B0DA
:1034600000BD0000001002400010014000002110CB
:10347000000C014010B50B480B4908600B48486030
:10348000002109488160C1604FF480410161002141
:1034900041618161C1610162FDF746FE08B1FDF73E
:1034A000ABFA10BD00540040EC020020801A060068
:1034B00000B58DB0002009900A900B900C900790F9
:1034C00008901C216846FCF7E2FF4FF080401F493E
:1034D00008600020486000211C4881605921C160BB
:1034E0000021016180218161FEF792FD08B1FDF7A5
:1034F00083FA4FF48050099009A91448FEF732FE70
:1035000008B1FDF779FA1148FFF719F908B1FDF78D
:1035100073FA00200790089007A90C48FEF736FDC3
:1035200008B1FDF769FA6020009000200190029038
:103530000490082269460548FFF77FF808B1FDF7B7
:103540005BFA0248FFF74CF80DB000BD40030020C5
:1035500000B58BB0242102A8FCF799FF0020009051
:10356000019018481849086000204860002116485A
:1035700081604FF6FF71C16000210161816103200C
:1035800002900020039001200490002005900690F6
:10359000079001200890002009900A9002A90A488B
:1035A000FEF766FE08B1FDF727FA002000900190B3
:1035B00069460548FEF7EAFC08B1FDF71DFA0BB0B5
:1035C00000BD0000000400408803002010B50B4837
:1035D0000B4908604FF4E1304860002108488160E1
:1035E000C16001610C21416100218161C161FFF76E
:1035F000F7FB08B1FDF700FA10BD000000380140EC
:103600001404002000BFFEE700BFFEE70148C078B9
:1036100070470000B4000020014840787047000067
:10362000B40000200148807870470000B4000020FA
:103630000149887070470000B400002070B504464E
:10364000002020E000211AE054F82020C1F11705E5
:103650000123AB401A4042B13F2200EB400301EB93
:10366000C303124D25F8132007E01B2200EB400393
:1036700001EBC3030D4D25F813204A1CD1B21829C4
:10368000E2DB411C88B20328DCDB482005E0002196
:10369000064A22F81010411C88B27A28F7DB7A23F8
:1036A000024A08210248FFF78BF870BDF80100209C
:1036B0004003002008B508490968C9084FF47A7228
:1036C000B1FBF2F14143009100BF00BF00994A1ED7
:1036D00000920029F9D108BD3C01002010B500205E
:1036E00000F0D0F900F0D6FB10BDF8B504460D4649
:1036F00016461F4600203B4632462946009020468B
:1037000000F0D0F93B4632462946204600F0EAFB5D
:10371000F8BD00002DE9FF4F83B084469846DDE9EF
:1037200010673046F21706EB5272D210029208462A
:10373000CA1701EB52724FEAE209CA1701EB527243
:10374000D210A1EBC20A002370E000226AE002FB63
:10375000083B059D15F80B400CEB030509EB020B2C
:1037600005EBCB10BAF1000F11D1012F07D1324D6B
:103770002D5C2543DFF8C0B00BF8005051E02E4D12
:103780002D5CA543DFF8B0B00BF8005049E004FA17
:103790000AF5EDB20195CAF1080544FA05F5009560
:1037A000012F0AD1244D2D5CDDF804B045EA0B054C
:1037B000DFF884B00BF8005009E01F4D2D5CDDF8F8
:1037C00004B025EA0B05DFF870B00BF8005009EBE8
:1037D00002056D1C082D23DA0CEB030E09EB020B1E
:1037E0000BF1010B0EEBCB15012F0CD1DFF848B01C
:1037F0001BF805B0DDF800E04BEA0E0BDFF838E00F
:103800000EF805B00BE0DFF830B01BF805B0DDF8BE
:1038100000E02BEA0E0BDFF820E00EF805B000BF49
:1038200000BF521C0298824291DB5B1C43458CDB3B
:1038300007B0BDE8F08F0000340600202DE9F84302
:1038400005460C4617469846DDF82090802D01DA93
:10385000402C01DBBDE8F883E819802802DBC5F1C4
:10386000800087B204EB0800402803DBC4F140006D
:103870001FFA80F800260CE0A01983B2E81982B282
:10388000A01981B22846CDF8009000F006F8701C0F
:10389000C6B24645F0DD00BFDCE72DE9FF4F044628
:1038A0000D4616461F46802C00DB7F24802E00DB51
:1038B0007F26402D00DB3F25402F00DB3F27B44211
:1038C00001DA301B00E0A01B0FFA80FBBD4201DAD9
:1038D000781B00E0E81B0FFA80F9B44201DA0120FE
:1038E00001E04FF0FF300390BD4201DA012001E01A
:1038F0004FF0FF300290CB4501DD594601E0C9F1A0
:103900000001084601EBD071491009B20191BBF1E9
:10391000000F1ED1AF4204DA0FFA87FA2F461FFAC2
:103920008AF5A64204DA0FFA86FA26461FFA8AF4C6
:103930000FFA85F809E01FFA88F120460D9A00F089
:1039400051F808F101000FFA80F8B845F3DDBDE841
:10395000FF8FB9F1000F1DD1AF4204DA0FFA87FAD9
:103960002F461FFA8AF5A64204DA0FFA86FA26468F
:103970001FFA8AF40FFA84F809E01FFA88F0294642
:103980000D9A00F02FF808F101000FFA80F8B04509
:10399000F3DDDCE722E0294620460D9A00F022F80C
:1039A000B44202D1BD4200D119E001980090CBF1A0
:1039B00000010098884207DD0198A0EB090000B2E1
:1039C00001900398204484B20098484506DA019893
:1039D000584400B201900298284485B2DBE700BF4A
:1039E00000BFB4E7F0B503461446802B01DA402946
:1039F00000DBF0BD2148007920B10CB9012000E0C6
:103A000000200446012C1CD1CD1701EB5575ED109B
:103A100003EBC5151A4E755D0A46CE1701EB5676B7
:103A2000F610A1EBC6070126BE403543EEB20846AC
:103A3000CD1701EB5575ED1003EBC515104F7E55F5
:103A40001AE0CD1701EB5575ED1003EBC5150C4EC3
:103A5000755D0A46CE1701EB5676F610A1EBC60748
:103A60000126BE40B5430846CE1701EB5676F61048
:103A700003EBC616024FBD5500BFBAE72801002070
:103A80003406002010B504460CB9002000E0FF20E9
:103A900002464FF480610248FCF7CFFC10BD0000E5
:103AA000340600202DE9F04F05461646DDF8248047
:103AB000802D01DBBDE8F08F802E00DB7F268B425E
:103AC00000DCF7E7B8F1000F01D1002000E0FF2093
:103AD00082460846CA1701EB5272C2F3CF07581E3E
:103AE000C21700EB5272C2F3CF0C384649E0FF22F6
:103AF000B8420DD10C464FEAE17901EB59794FEA12
:103B0000E909A1EBC90B914609FA0BF909EA02028E
:103B1000604510D15C1E4FEAE47904EB59794FEA15
:103B2000E909A4EBC909C9F1070B4FF0FF0949FAEC
:103B30000BF909EA0202A9461FE009EBC01B1FFAB4
:103B40008BF4B8F1010F0AD1DFF840B01BF804B0D4
:103B50004BEA020BDFF834E00EF804B009E0DFF8BE
:103B60002CB01BF804B02BEA020BDFF820E00EF8B3
:103B700004B009F101041FFA84F9B145DDDD421CEE
:103B800090B26045B3DD00BF94E70000340600202A
:103B9000014A108051807047280100207CB50446FE
:103BA0000E4615468DF804608DF805500A20022354
:103BB00001AA214600900248FDF77AFC7CBD000076
:103BC000EC0200202DE9F041C2B006460F469046B7
:103BD0001D468DF80870002405E018F8041002AAAC
:103BE000601C1154C4B2AC42F7DB0A200090681C80
:103BF00083B202AA31460348FDF75AFC42B0BDE841
:103C0000F0810000EC02002010B544F62063012290
:103C100078214648FDF770FB08B1002010BD40F642
:103C2000C41400E0641E002CFCD1AE2200217820D8
:103C3000FFF7B4FFB02200217820FFF7AFFF812209
:103C400000217820FFF7AAFFFF2200217820FFF74C
:103C5000A5FFA12200217820FFF7A0FFA6220021C6
:103C60007820FFF79BFFA82200217820FFF796FF1E
:103C70003F2200217820FFF791FFAD22002178201C
:103C8000FFF78CFF8B2200217820FFF787FF32227D
:103C900000217820FFF782FFC82200217820FFF75B
:103CA0007DFFD32200217820FFF778FF0022114604
:103CB0007820FFF773FFD52200217820FFF76EFFF1
:103CC000802200217820FFF769FFD9220021782087
:103CD000FFF764FF1F2200217820FFF75FFFDA2241
:103CE00000217820FFF75AFF122200217820FFF7E9
:103CF00055FFDB2200217820FFF750FF40220021F2
:103D00007820FFF74BFFAF2200217820FFF746FF16
:103D10000020FFF7B7FE00F0BDF80020044908803E
:103D200048800120487100BF78E70000EC020020C5
:103D3000280100202DE9F04307460C46904626480E
:103D4000008821780844802805DA23484088617873
:103D50000844402802DB0020BDE8F083002530E065
:103D6000A7F12000617800FB0150616831F81090E4
:103D7000002622E009FA06F000F4004058B1164A85
:103D800052882A4491B2144A1288324490B2424670
:103D9000FFF728FE10E0B8F1000F01D1012300E089
:103DA00000231A460C4B5B882B4499B20A4B1B88A4
:103DB000334498B2FFF716FE761C2078B042D9D86B
:103DC0006D1C6078A842CBD803480088217808444D
:103DD000014908803846BFE72801002070B5044635
:103DE0000D4616460AE0207832462946FFF7A2FF24
:103DF0002178884201D0207870BD641C207800288A
:103E0000F1D12078F8E700001CB5FFF767FC01202E
:103E100010210B461B4ACDE9001000210846FFF790
:103E200079FC012010210B46174ACDE90010002132
:103E30006E20FFF76FFC012010210B46134ACDE9DD
:103E4000001032210D20FFF765FC012010210B46E8
:103E50000F4ACDE9001032214E20FFF75BFC012014
:103E600012237F22194600900020FFF716FD012043
:103E700030237F22194600900020FFF70EFD00F04E
:103E800009F81CBDE6A0000806A00008A6A00008CE
:103E900086A0000870B500251EE005F1B000C2B292
:103EA00000217820FFF77AFE0224224600217820A4
:103EB000FFF774FE102040EA141200217820FFF76B
:103EC0006DFE0748802101FB05020B46402178204A
:103ED000FFF778FE681CC5B2082DDEDB70BD000060
:103EE000340600202DE9F84F04460D461746984643
:103EF000802C01DBBDE8F88F802F00DB7F27A845F1
:103F000000DCF7E72846E91705EB5171C1F3CF094B
:103F1000A8F10100C11700EB5171C1F3CF0A4E4661
:103F200025E006F1B000C2B200217820FFF736FE8E
:103F3000A01C00F0FF0B0BF00F0200217820FFF710
:103F40002DFE102040EA2B1200217820FFF726FEDC
:103F5000381B401C80B2009004EBC6100649421882
:103F600040217820009BFFF72DFE701C86B256453D
:103F7000D7DD00BFBEE700003406002010B54FF0CB
:103F8000E020006903F0D4F9012801D002F0F0FD2F
:103F900010BD00B58FB0282105A8FCF778FA1421D0
:103FA0006846FCF774FA0120059000040690002092
:103FB00007900120099002200C90C1030D914FF44D
:103FC000E0110E9105A8FDF7ADFD08B1FCF714FD59
:103FD0000F20009002200190002002904FF480609A
:103FE00003900020049002216846FDF755FC08B1BB
:103FF000FCF702FD0FB000BD7047000010B502488D
:10400000FEF738FA10BD0000EC05002010B502687C
:104010001C4B984208D0B0F1804F05D01A4B984203
:1040200002D01A4B984203D122F070024B681A4317
:10403000144B984208D0B0F1804F05D0124B9842F3
:1040400002D0124B984203D122F44072CB681A433B
:1040500022F080034C6943EA040202608B68C36269
:104060000B688362074B984201D10B6903630123FC
:104070004361036903F001031BB1036923F00103EA
:10408000036110BD002C0140000400400008004006
:1040900030B501F01F05012404FA05F3046A9C43BE
:1040A0000462046A01F01F0502FA05F52C4304625C
:1040B00030BD70B505466C6A606AA84207D1012020
:1040C0002077A86918BB012084F83E001FE0A06A91
:1040D000A84207D102202077A869C0B901213F205A
:1040E000015514E0E06AA84207D104202077A869AE
:1040F00068B901214020015509E0206BA84206D192
:1041000008202077A86910B90121412001552046D7
:10411000FEF74AFB0020207770BD70B505466C6A3B
:10412000606AA84202D10120207710E0A06AA8426C
:1041300002D1022020770AE0E06AA84202D10420DE
:10414000207704E0206BA84201D108202077204688
:10415000FEF734FB0020207770BD70B505466C6A11
:10416000606AA84204D10120207784F83E001DE057
:10417000A06AA84205D10220207701213F200155E5
:1041800014E0E06AA84205D10420207701214020F4
:1041900001550BE0206BA84205D1082020770121B2
:1041A0004120015502E0012084F83D002046FEF741
:1041B0005FF90020207770BD30B50C46816821F48E
:1041C0007F4142EA032525432943816030BD0A46E9
:1041D000816821F0700142F0070319438160704744
:1041E00030B5026A056A25F00105056243688469F5
:1041F00024F0700424F003040D682C4322F0020222
:104200008D682A430D4DA84206D100BF22F0080256
:10421000CD682A4322F00402084DA84207D123F4B6
:10422000807323F400734D692B438D692B434360E6
:1042300084614D684563026230BD0000002C01407E
:1042400030B5026A056A25F0100505624368846985
:1042500024F4E04424F440740D6844EA052422F078
:1042600020028D6842EA05120E4DA84207D100BF18
:1042700022F08002CD6842EA051222F04002094D88
:10428000A84209D123F4806323F400634D6943EA13
:1042900085038D6943EA8503436084614D688563C6
:1042A000026230BD002C014030B5026A056A25F477
:1042B000807505624368C46924F0700424F0030427
:1042C0000D682C4322F400728D6842EA05220F4DDE
:1042D000A84207D100BF22F40062CD6842EA05225D
:1042E00022F48062094DA84209D123F4805323F4BB
:1042F00000534D6943EA05138D6943EA0513436092
:10430000C4614D68C563026230BD0000002C0140ED
:1043100030B5036A056A25F4805505624468C269B0
:1043200022F4E04222F440720D6842EA052223F4AE
:1043300000538D6843EA0533064DA84204D124F4A6
:1043400080444D6944EA85144460C2614D68056447
:10435000036230BD002C014030B50B461446026AA2
:10436000056A25F001050562816921F0F00141EA45
:10437000041122F00A021A438161026230BD30B595
:104380000B461446026A056A25F01005056281692C
:1043900021F4704141EA043122F0A00242EA031202
:1043A0008161026230BD70B505466C6A0020E0850F
:1043B000E0842046FEF7A0FB70BD00BF00BF02688E
:1043C0000C3252E8002F22F4907102680C3242E85D
:1043D0000013002BF3D100BF00BF00BF02681432EE
:1043E00052E8002F22F001010268143242E8001363
:1043F000002BF3D100BF016B01290ED100BF00BF1C
:1044000002680C3252E8002F22F0100102680C32D0
:1044100042E80013002BF3D100BF202180F84210A6
:1044200000210163704710B504462068C06820F081
:1044300040002168C860202084F841002046FEF733
:10444000BDFD002010BDF8B5044694F842002228B6
:1044500075D1A068B0F5805F0CD1206950B90025F6
:10446000A66A20684068C0F308003080A06A801CFB
:10447000A06215E0A56A0026A068B0F5805F03D0B1
:10448000A06828B9206918B920684068287004E03D
:104490002068406800F07F002870A06A401CA0627D
:1044A000E08D401E80B2E085002846D12068C068BB
:1044B00020F020002168C8602068C06820F4807067
:1044C0002168C8602068406920F0010021684861C7
:1044D000202084F8420000206063206B012826D150
:1044E0000020206300BF00BF21680C3151E8001F8D
:1044F00021F0100021680C3141E80002002AF3D1BC
:1045000000BF2068006800F0100010280AD100BF2A
:1045100000200090206800680090206840680090AB
:1045200000BF00BFA18D2046FEF7E5FA02E020465D
:10453000FEF712FD0020F8BD01E00020FBE702209D
:10454000F9E7000070B504462168096921F440517B
:10455000E2681143226811612269A168114362690E
:1045600041EA02052168C96841F20C62914329437E
:104570002268D1602168496921F44071A269114320
:10458000226851612D4A2168914202D1FDF782FAD9
:1045900001E0FDF76FFA00EBC00101EB001162686A
:1045A0009200B1FBF2F100EBC00202EB0012636873
:1045B0009B00B2FBF3F26423B2FBF3F202EBC20303
:1045C00003EB0212A1EB8201322202EB0111642201
:1045D000B1FBF2F101F0F00100EBC00202EB0012BE
:1045E00063689B00B2FBF3F26423B2FBF3F201EBCE
:1045F000021200EBC00101EB001163689B00B1FBEC
:10460000F3F100EBC00303EB00136668B600B3FBE5
:10461000F6F36426B3FBF6F303EBC30606EB0313D2
:10462000A1EB8301322303EB01116423B1FBF3F10E
:1046300001F00F0111442268916070BD0038014003
:1046400010B5034699629A85DA85002058642220C5
:1046500083F84200186928B11868C06840F4807077
:104660001C68E0601868406940F001001C686061E7
:104670001868C06840F020001C68E060002010BD91
:10468000014691F84100212828D18868B0F5805F63
:104690000BD1086948B90A6A1088C0F308000B6892
:1046A0005860086A801C086205E00B6A581C0862A2
:1046B00018780B685860C88C401E80B2C88458B9FE
:1046C0000868C06820F080000B68D8600868C0687F
:1046D00040F040000B68D860002070470220FCE7E3
:1046E00010B50248FEF70AFA10BD000014040020BD
:1046F00000BFFEE702480068C0F3022070470000D8
:104700000CED00E010B5002804DB0A07130E054A83
:10471000135406E00A07140E034A00F00F031B1F90
:10472000D45410BD00E400E018ED00E0704770477D
:104730007047000010B507490978074A02EB0111DC
:1047400048688047054908700846007801F04CFB2E
:1047500010BD0000E8000020B8000020ED0000209F
:104760007CB504460020019002F0F8FD054615488E
:104770000068281AC82800D27CBD12480560012CA8
:1047800002D1022000900AE0022C02D10320009006
:1047900005E0082C02D10420009000E0ECE70023A3
:1047A00001AA69460848006802F0BAFB019838B1CE
:1047B0004FF0805005490860BFF34F8FBFF36F8FF4
:1047C00000BFD9E7180100201401002004ED00E02B
:1047D00010B500F001F810BD8AB0242101A8FBF744
:1047E00056FE0EE04FF0FF3201A90648006802F0C5
:1047F00015FC012805D101A800F01CFC0A2001F0DD
:1048000053FEEFE7F40000200146002209B9012021
:104810007047002900DA494203E00A2091FBF0F1D9
:10482000521C0029F9DC1046F2E7000038B51049A7
:104830000878C11700EB91718910A0EB810109077D
:104840000C0E04F11003802221466820FEF74DFF74
:1048500001200F238022214600906820FEF7EEFF02
:1048600004F11003802221466820FFF73BFB38BD8E
:10487000E800002010B516480078164901EB00103A
:10488000007A1549097888421CDA114800781149E4
:1048900001EB0010807A10490978081A0E49087057
:1048A0000B4800780B4901EB0010007A0A4909789F
:1048B000884207DD06480078064901EB0010007ABF
:1048C000054908700448007801F08EFA10BD000018
:1048D000E8000020B8000020ED00002010B5084BD3
:1048E0005968084B1B68084CB3FBF4F303FB00F258
:1048F00000BF034B5B685B1A9342FAD310BD000004
:10490000001000E03C01002040420F00F8B52D49A6
:104910004878C11700EB91718910A0EB810109075C
:104920000C0E28490878C11700EB91718910A0EB93
:10493000810109070D0E04F1100380222146002099
:10494000FEF7D3FE211D0020FFF722F91D4949780B
:104950001D4A02EB0111012208681C49FFF73EFACB
:1049600005F11003802229460020FEF7BEFE01203B
:104970000F238022294600900020FEF75FFF291DAB
:104980000020FFF705F90F4909780F4A02EB0111E2
:10499000002208680D49FFF721FAAC4201DA2046EF
:1049A00000E028460646AC4201DD234600E02B46E7
:1049B0001F4607F11003802231460020FFF792FACC
:1049C000F8BD0000E8000020B8000020FC00002036
:1049D00010B516480078164901EB0010407A1549C9
:1049E000097888421CDD11480078114901EB00105C
:1049F000807A1049097808440E4908700B480078FD
:104A00000B4901EB0010407A0A490978884207DA1D
:104A100006480078064901EB0010407A0549087005
:104A20000448007801F0E0F910BD0000E800002023
:104A3000B8000020ED00002010B500F001F810BD16
:104A400008B518480068406A07B2002429E01548F4
:104A50000068406A05B2E81B06B216B12F46A019DD
:104A600004B2042C0BDB201F04B2062000900023AC
:104A70001A4669460C48006802F07EF90DE014F110
:104A8000040F0ADC201D04B20520009000231A4602
:104A900069460548006802F06FF90A2001F004FD3C
:104AA00000BFD4E7880300201401002010B500F0F7
:104AB00001F810BD08B54FF4FA6001F0F5FC00BF35
:104AC00001F0E0F824E04FF0FF3269461148006839
:104AD00002F0A4FA9DF80000072817D2DFE800F0E2
:104AE0001604070A0D10130000F034FA0FE0FFF768
:104AF0000DFF0CE0FFF71EFE09E0FFF797FE06E052
:104B0000FFF766FF03E0FFF7B5FE00E000BF00BF60
:104B1000D9E700002001002010B500F001F810BD19
:104B200008B502F015FC009024E0002420E0FEF718
:104B300079FD18B9142001F0B7FC18E00E4951F8BE
:104B40002400FEF77BFDFEF76DFD40F26C714843DB
:104B50006421B0FBF1F0C0F5FA604FF47A7148437C
:104B6000B0FBF1F52946684601F0CCFC00BF641C9F
:104B70000E2CDCDBD9E700006C00002010B50446E9
:104B800034B1012C0BD0022C0FD0032C20D116E015
:104B900000224FF400510F48FCF7BAFA18E0012246
:104BA00051030C48FCF7B4FA12E04FF400510948E5
:104BB000FCF7A4FA4FF4FA7001F076FC08E04FF429
:104BC00000510448FCF79AFAFA2001F06DFC00BF8E
:104BD00000BF10BD001001400EB5FCF767FDFFF7E8
:104BE000D8F9FBF7E5FEFEF7CFFBFEF7ABFBFEF7D0
:104BF000EDFCFEF75DFCFEF7ABFCFEF73BFC042191
:104C0000AB48FDF7CFFBFEF7FFFF1E210020FEF7AC
:104C1000BFFF0122A749A8A0FFF7E0F8FFF73AF984
:104C2000002222210A2001F0BDFFA64908600846A3
:104C3000006808B1012000E0002050B900BF5020FA
:104C400080F31188BFF34F8FBFF36F8F00BF00BF9A
:104C5000FEE700220121322001F0A4FF9A490860FA
:104C60000846006808B1012000E0002050B900BFEC
:104C7000502080F31188BFF34F8FBFF36F8F00BFB9
:104C800000BFFEE700220121322001F08BFF8F4997
:104C900008600846006808B1012000E0002050B913
:104CA00000BF502080F31188BFF34F8FBFF36F8F89
:104CB00000BF00BFFEE700220121322001F072FF99
:104CC000834908600846006808B1012000E0002020
:104CD00050B900BF502080F31188BFF34F8FBFF34E
:104CE0006F8F00BF00BFFEE77A48052100234FF415
:104CF0008072CDE9001078A17A4802F089FA044662
:104D0000012C00D100E0002050B900BF502080F3FA
:104D10001188BFF34F8FBFF36F8F00BF00BFFEE757
:104D20000020052103468022CDE900106EA17248C3
:104D300002F06EFA0446012C00D100E0002050B9C8
:104D400000BF502080F31188BFF34F8FBFF36F8FE8
:104D500000BF00BFFEE70020042103468022CDE90A
:104D6000001066A1684802F053FA0446012C00D1F5
:104D700000E0002050B900BF502080F31188BFF33D
:104D80004F8FBFF36F8F00BF00BFFEE700200421ED
:104D900003468A01CDE900105CA15E4802F038FAB2
:104DA0000446012C00D100E0002050B900BF502083
:104DB00080F31188BFF34F8FBFF36F8F00BF00BF29
:104DC000FEE75548032100234FF48072CDE900101F
:104DD00052A1554802F01CFA0446012C00D100E013
:104DE000002050B900BF502080F31188BFF34F8FCF
:104DF000BFF36F8F00BF00BFFEE702A803210023AF
:104E00004FF48072CDE9001048A14B4802F000FA3F
:104E10000446012C00D100E0002050B900BF502012
:104E200080F31188BFF34F8FBFF36F8F00BF00BFB8
:104E3000FEE70020012103468022CDE900103FA1BA
:104E4000414802F0E5F90446012C00D100E00020C1
:104E500050B900BF502080F31188BFF34F8FBFF3CC
:104E60006F8F00BF00BFFEE7012238493848FEF7C8
:104E70005DF805460DB9012000E0002050B900BFE3
:104E8000502080F31188BFF34F8FBFF36F8F00BFA7
:104E900000BFFEE701F0ACFC00BF502080F311889A
:104EA000BFF34F8FBFF36F8F00BF00BFFEE700005F
:104EB000880300200401002048454C4C4F204355F6
:104EC00042494B00F4000020140100202001002082
:104ED00024010020F0000020756172745F7461731A
:104EE0006B000000E35E0008636F6E74726F6C5FAE
:104EF0007461736B00000000D1470008696E707523
:104F0000745F7461736B0000394A000875695F74DF
:104F100061736B00815F00081C0100206C63645F9B
:104F20007461736B00000000AD4A00086C65645F3B
:104F30007461736B00000000194B000873656E7399
:104F40006F725F7461736B00495E0008FA000020A5
:104F50001404002010B50748007810B1012806D1CC
:104F600002E000F08FFE03E000F0FCFE00E000BF76
:104F700000BF10BDEC00002070B504460D4694F84B
:104F80002300052846D2DFE800F003090E2039008F
:104F9000AA2D02D1012084F823003BE025700220D5
:104FA00084F8230036E0202D0BDC6570002084F8A7
:104FB0002200607808B9042000E0032084F8230070
:104FC00002E0002084F8230024E094F82200202846
:104FD00010DA14F8221F2078401C04F82209A01CC3
:104FE000455494F822006178884206DB042084F856
:104FF000230002E0002084F823000BE02E46314617
:10500000204601F021FD08B9002070BD204600F0C7
:1050100004F800BF00BF0120F7E710B504462221C5
:105020002046FBF712FA002084F8220084F82300BF
:1050300010BD000010B504462078082823D2DFE810
:1050400000F02204080C1014191E0020FFF796FD32
:105050001AE00120FFF792FD16E00220FFF78EFD17
:1050600012E00320FFF78AFD0EE00848006801F017
:105070001BFC09E00548006801F072FB04E0A07821
:10508000FEF7D6FA00E000BF00BF10BDB000002060
:105090002DE9F04105460E46164807681648006897
:1050A000001D01F06DF8681C38B936B1124801686E
:1050B000091D124801F0C6F81AE07C190E48006874
:1050C0004460BC4207D20C480168091D0C480068C6
:1050D00001F09EF80CE008480168091D09480068C5
:1050E00001F096F808480068844201D2064804603E
:1050F000BDE8F0815401002040010020240F002071
:1051000048010020440100207001002010B5044631
:1051100001F0A4F824480068401C23490860234893
:10512000006840B9214804600846006801280DD194
:1051300000F0FCF90AE01E48006838B91B48006816
:10514000C06AE16A884201D81848046019480068BA
:10515000401C184908600846006860641649E06A07
:105160000968884202D91449E06A0860E16A01EBE3
:105170008101124A02EB8100211D01F063F801F068
:1051800097F80B48006868B108480068C06AE16A8F
:10519000884207D24FF0805009490860BFF34F8F13
:1051A000BFF36F8F10BD00005001002040010020B0
:1051B0005C0100206C01002058010020740A0020CE
:1051C00004ED00E008B501F049F812480068E8B9BC
:1051D000114801F00DF8114801F00AF80E48104985
:1051E00008600E480F49086000200F4B0F4A10213D
:1051F00000900A2001F003FD064908600846006897
:1052000020B10BA10348006801F012F901F050F839
:1052100008BD000084010020380F00204C0F002042
:105220007C01002080010020600F0020B00F0020D2
:10523000546D72510000000010B516E001F00EF838
:105240000C48C068C468201D00F09AFF0A48006836
:10525000401E0949086009480068401E0749086067
:1052600001F026F8204600F05FF8044800680028A6
:10527000E4D110BD100F0020500100204C0100208F
:1052800070B504460D46206C70B1216CE068014495
:10529000E160D4E90210884201D32168E160284628
:1052A000226CE168FBF784F870BD2DE9F0410446FB
:1052B0000F4615464FF00008A66B206C48B92068D1
:1052C00000282CD1A06802F0F5F880460020A060EC
:1052D00025E07DB93946226C6068FBF769F8216CDE
:1052E000606808446060D4E90101884217D32068EF
:1052F000606014E03946226CE068FBF759F8216CD5
:10530000E068411AE1602168E068884203D2216CBC
:10531000A068411AE160022D01D106B1761E701C11
:10532000A0634046BDE8F08110B5044694F85900EA
:1053300030B9206B00F0DAFF204600F0D7FF1AE00A
:1053400094F85900012803D1204600F0CFFF12E065
:1053500094F85900022801D1012000E0002050B942
:1053600000BF502080F31188BFF34F8FBFF36F8FC2
:1053700000BF00BFFEE710BD0146084A1268126870
:105380000AB9012200E000220A600A6822B9034A31
:105390001268D268106800E0002070477C0100208D
:1053A00030B54FF42053174800F007042CB1C01D4E
:1053B00020F00700134C041B1B1B0246124C2260FA
:1053C0000024114D6C60D018083820F007000F4CF5
:1053D000206000240D4D2D686C600C4D2D682C60F4
:1053E0001146441A4C60094C24680C60084D4C6806
:1053F0002C60084D4C682C604FF00044064D2C602A
:1054000030BD000008170020900100209801002006
:10541000A00100209C010020AC01002000BFFFF78C
:105420000BFF064800680128F9D94FF08050044965
:105430000860BFF34F8FBFF36F8FF0E7740A00204F
:1054400004ED00E02DE9F04106460D46174698466A
:10545000069C0DB9246000E02760E6632564012105
:10546000204601F03DFC84F84C80BDE8F0812DE938
:10547000F05F82460E4690469B460A9F0C9C4FEA80
:105480008801A522206BFAF7D8FFA8F10100216B53
:1054900001EB800929F0070909F0070008B901208C
:1054A00000E0002050B900BF502080F31188BFF306
:1054B0004F8FBFF36F8F00BF00BFFEE786B100259F
:1054C00007E0715D04F134004155705D00B902E000
:1054D0006D1C102DF5D300BF00214320015502E0C3
:1054E000002084F83400382F00D33727E762E764C0
:1054F00000202065201D00F088FE04F1180000F057
:1055000084FE2461C7F13800A061646200206065F8
:1055100084F858005A465146484600F0A1FB2060E6
:105520000B9808B10B980460BDE8F09F10B50024FB
:1055300007E004EB84010F4A02EB810000F058FE03
:10554000641C382CF5D30C4800F052FE0B4800F0D8
:105550004FFE0B4800F04CFE0A4800F049FE0A4896
:1055600000F046FE044809490860044808490860FC
:1055700010BD0000740A0020D40E0020E80E0020A8
:10558000FC0E0020100F0020240F002044010020FA
:105590004801002010B50146164800E00068036885
:1055A0008B42FBD30246436813448B4204D14368C9
:1055B0004C682344436001460A464B681344046820
:1055C000A34211D10C4C03682468A34208D04B6855
:1055D0000468646823444B6003681B680B6005E043
:1055E000054B1B680B6001E003680B60884200D02C
:1055F000016010BD90010020980100202DE9F041CC
:1056000004460D4616461F464FF0000865602461AB
:10561000B5420CD8F01BA169884202D34FF00108B3
:1056200011E0211D0948006800F0F2FD0BE0BE42C8
:1056300004D2BD4202D34FF0010804E0211D04480A
:10564000006800F0E5FD4046BDE8F08180010020E3
:105650007C01002070B5054600F000FEA86B08B97B
:10566000012400E0002400F023FE204670BD70B548
:10567000054600F0F3FDA86BE96B884201D10124D7
:1056800000E0002400F014FE204670BDF8B5054689
:105690000F461A480068C068C468201D00F070FDFD
:1056A00094F8280000F00400E8B1A06941192B46E5
:1056B0003A462046FFF7A2FFD8B1002003462A460B
:1056C00001460090204602F051F8064656B900BF48
:1056D000502080F31188BFF34F8FBFF36F8F00BF4F
:1056E00000BFFEE705E094F8280020F0010084F8F0
:1056F00028002046216A8847F8BD00007C01002070
:10570000F0B587B0A0E00398002811DA04AE56B9CE
:1057100000BF502080F31188BFF34F8FBFF36F8F0E
:1057200000BF00BFFEE7D6E90020B168904700BF88
:1057300003980028E6DB059C606908B9012000E0B9
:10574000002010B9201D00F01BFD02A800F0DEF8BB
:10575000054603980A2875D2DFE800F009050739E5
:10576000416306083A4200BF00BF00BF00BF94F883
:10577000280040F0010084F828000498A2698118EC
:1057800003462A462046FFF739FFF8B12046216A32
:10579000884794F8280000F00400B8B10020009079
:1057A0000498A169421800231946204601F0DEFF43
:1057B000074657B900BF502080F31188BFF34F8FC1
:1057C000BFF36F8F00BF00BFFEE700BF3BE000BF2D
:1057D00094F8280020F0010084F8280033E000BF8E
:1057E00094F8280040F0010084F828000498A06193
:1057F000A06908B1012000E0002050B900BF50208E
:1058000080F31188BFF34F8FBFF36F8F00BF00BFCE
:10581000FEE7A06941192B462A462046FFF7EEFE17
:1058200011E094F8280000F0020018B9204600F0BA
:105830005DFD05E094F8280020F0010084F82800C0
:1058400001E0FFE700BF00BF002203A90448006891
:1058500001F0E4FB00287FF456AF07B0F0BD000074
:1058600084010020F8B505460C4601F081F8684631
:1058700000F04CF80646009820BB44B9B54206D863
:1058800001F0B6FE31462846FFF700FF1CE03CB1B0
:105890000E480068006808B9012000E000200446B6
:1058A000A91B22460A48006800F0D8FD01F0A0FEBE
:1058B00050B94FF0805007490860BFF34F8FBFF3D6
:1058C0006F8F01E001F094FEF8BD00008001002020
:1058D0008401002004ED00E00A490968096809B95B
:1058E000012100E0002121B14FF0FF31064A116093
:1058F00006E004490968C968C868034A416811603C
:1059000070470000440100207001002070B504467B
:1059100001F01EFD054607480068854204D200F0EC
:105920000BF80120206001E00020206001480560A4
:10593000284670BD8C0100202DE9F84334E025484D
:105940000068C068056823480068C068C468201DF6
:1059500000F016FC2046216A884794F8280000F0E1
:10596000040008B3A0694619AE4207D966602461F5
:10597000211D1848006800F04BFC15E0002003468C
:105980002A4601460090204601F0F0FE074657B92E
:1059900000BF502080F31188BFF34F8FBFF36F8F8C
:1059A00000BF00BFFEE700BF0A480068006808B9F2
:1059B000012000E000200028C1D00648D0F8008077
:1059C00005480068034908600348C0F80080BDE846
:1059D000F88300007C010020800100200E48006850
:1059E000401C08B9012000E0002050B900BF502041
:1059F00080F31188BFF34F8FBFF36F8F00BF00BFDD
:105A0000FEE700BF502080F31188BFF34F8FBFF334
:105A10006F8F00BF00BFFEE7B001002010B5024647
:105A20000020114652B900BF502383F31188BFF301
:105A30004F8FBFF36F8F00BF00BFFEE70B4C4B696A
:105A4000A34201D1012300E0002373B1084C8B6A0B
:105A5000A34201D1012300E0002333B98B6A0BB9C3
:105A6000012300E0002303B1012010BD240F00201A
:105A7000FC0E002008B500BF6846FFF77DFC044619
:105A800020460099FFF7EEFEFFF73AFEF4E770B507
:105A9000044600F0E3FB94F9455010E0606A08B951
:105AA000012000E0002038B904F1240001F054FD89
:105AB00018B100F09DFD00E003E0681E45B2002D26
:105AC000ECDC00BFFF2084F8450000F0F1FB00F0A3
:105AD000C5FB94F9445010E0206908B9012000E0AA
