:020000040800F2
:100000003021002021020008571C0008E11A0008D6
:10001000551C00086B040008F520000800000000D3
:10002000000000000000000000000000890100083E
:10003000F506000800000000CD010008611C000862
:100040003B0200083B0200083B0200083B0200089C
:100050003B0200083B0200083B0200083B0200088C
:100060003B0200083B0200083B020008B9060008FA
:100070003B0200083B0200083B020008C5060008DE
:100080003B0200083B0200083B0200083B0200085C
:100090003B0200083B0200083B0200083B0200084C
:1000A0003B020008DD1C00083B0200083B02000880
:1000B0003B0200083B0200083B0200083B0200082C
:1000C0003B0200083B0200083B0200083B0200081C
:1000D0003B020008E92000083B0200083B02000840
:1000E0003B0200083B0200083B02000800F002F857
:1000F00000F03AF80AA090E8000C82448344AAF188
:100100000107DA4501D100F02FF8AFF2090EBAE885
:100110000F0013F0010F18BFFB1A43F0010318473B
:100120004839000068390000103A24BF78C878C107
:10013000FAD8520724BF30C830C144BF04680C60ED
:10014000704700000023002400250026103A28BF35
:1001500078C1FBD8520728BF30C148BF0B60704739
:100160001FB51FBD10B510BD00F045F91146FFF7D2
:10017000F7FF01F0E9FF00F063F903B4FFF7F2FFC6
:1001800003BC00F06BF90000224B19680868B0E866
:10019000F00F80F30988BFF36F8F4FF0000080F3FA
:1001A00011884EF00D0E70470000000006480068F0
:1001B000006880F3088862B661B6BFF34F8FBFF363
:1001C0006F8F00DF00BF00BF08ED00E0EFF3098094
:1001D000BFF36F8F0F4B1A6820E9F00F106008B55E
:1001E0004FF0500080F31188BFF34F8FBFF36F8F34
:1001F00002F004FF4FF0000080F31188BDE80840D2
:1002000019680868B0E8F00F80F30988BFF36F8FB2
:10021000704700BF1C000020EFF30580704700000E
:100220000948804709480047FEE7FEE7FEE7FEE78A
:10023000FEE7FEE7FEE7FEE7FEE7FEE704480549C6
:10024000054A064B70470000D91C0008ED00000865
:10025000301B002030210020301D0020301D0020E8
:10026000032A40F2308010F0030C00F0158011F8E2
:10027000013BBCF1020F624498BF11F801CB00F8BA
:10028000013B38BF11F8013BA2F1040298BF00F80E
:1002900001CB38BF00F8013B11F0030300F0578099
:1002A000083AC0F0088051F8043B083A51F804CBF2
:1002B000A0E80810F5E7121D5CBF51F8043B40F8B8
:1002C000043BAFF30080D20724BF11F8013B11F8C3
:1002D00001CB48BF11F8012B24BF00F8013B00F807
:1002E00001CB48BF00F8012B704702F0FF0343EA3F
:1002F000032242EA024200F05EB84FF0000200B56D
:10030000134694469646203922BFA0E80C50A0E838
:100310000C50B1F12001BFF4F7AF090728BFA0E8E6
:100320000C5048BF0CC05DF804EB890028BF40F8B2
:10033000042B08BF704748BF20F8022B11F0804FF4
:1003400018BF00F8012B704770477047704710B511
:10035000203AC0F00B80B1E81850203AA0E81850BD
:10036000B1E81850A0E81850BFF4F5AF5FEA027C7E
:1003700024BFB1E81850A0E8185044BF18C918C0ED
:10038000BDE810405FEA827C24BF51F8043B40F88E
:10039000043B08BF7047D20728BF31F8023B48BF73
:1003A00011F8012B28BF20F8023B48BF00F8012BB1
:1003B00070474FF000020429C0F0128010F0030CC7
:1003C0003FF49DAFCCF1040CBCF1020F18BF00F854
:1003D000012BA8BF20F8022BA1EB0C01FFF78FBF68
:1003E0005FEAC17C24BF00F8012B00F8012B48BF55
:1003F00000F8012B7047754600F02CF8AE4605005A
:100400006946534620F00700854618B020B5FFF72F
:1004100015FFBDE820404FF000064FF000074FF0F9
:1004200000084FF0000B21F00701AC46ACE8C00912
:10043000ACE8C009ACE8C009ACE8C0098D4670471B
:1004400010B50446AFF300802046BDE81040FFF72A
:1004500094BE000000487047D01A002001491820BF
:10046000ABBEFEE7260002007047FEE72DE9F05F15
:10047000DFF870B10021CBF800108BF8041002F007
:10048000EBFB00F0EDF8584F584D3868B0FBF5F134
:1004900057484268574CB2FBF1F6804609E000BF6E
:1004A000B0FBF5F1D8F80400B0FBF1F0801B642834
:1004B00075D80121204600F057FB01283868EFD09D
:1004C000B0FBF5F0D8F804104646B1FBF0F8B94699
:1004D0000BE000BFD9F800007168B0FBF5F0B1FB8C
:1004E000F0F0A0EB0800642877D8012127462046C9
:1004F00000F03AFB0028EDD0D9F800007168B0FB9D
:10050000F5F04C46B1FBF0F8B1460AE02168D9F8A5
:100510000400B1FBF5F1B0FBF1F0A0EB080064289A
:100520005BD80121384600F01FFB0128EED00026E1
:10053000C846BA464FF000092068D8F80420B0FB3E
:10054000F5F1B2FBF1F709E02068B0FBF5F1D8F85E
:100550000400B0FBF1F0C01B64283ED801215046D6
:1005600000F002FB0028EFD01BF806005F464000B9
:100570000BF80600282001F0CFFD0121504600F0C5
:10058000F3FA012803D1B85D40F00100B8552068A6
:10059000D8F80420B0FBF5F1B2FBF1F70AE01CE05B
:1005A0002068B0FBF5F1D8F80400B0FBF1F0C01BF7
:1005B000642812D80121504600F0D6FA0128EFD065
:1005C00009F10109B9F1080FB6DB761C052EB1DB84
:1005D00002F062FB0020BDE8F09F02F05DFB01200D
:1005E000F9E70000020000201800002040420F0040
:1005F000001000E00008014010B50446FFF736FF88
:1006000008B1012010BD154908784A78CB7810440C
:100610008A781A4410440A79C0B2824201D002207A
:1006200010BD08880A2240BAB0FBF2F0642813D843
:100630006070488840BA01B2080403D5C1F30E00C7
:10064000404201B291FBF2F001B201F1280078289A
:1006500002D82170002010BD032010BD0200002030
:100660002DE9FF41012401AA002502260094114F23
:1006700082E870006946384600F086F900220121C0
:10068000384600F07EFA4FF47A7001F045FD012201
:100690001146384600F075FA1E2001F03DFDCDE907
:1006A000025669463846CDE9004500F06DF9BDE8CF
:1006B000FF81000000080140014800F08DB80000F3
:1006C000E4000020014800F087B80000700100201D
:1006D0000648016841F080710160054800214160D1
:1006E000016841F00101016070470000FCED00E08D
:1006F000001000E0704772B6FEE710B590F82110C8
:100700000022022905D00421816380F820200120E5
:1007100010BD01680B6823F00E030B6001680B68C5
:1007200023F001030B6090F84030C46B012101FA03
:1007300003F3636080F8211080F82020104610BD7C
:1007400010B590F821100024022903D00421816300
:1007500001243DE001680A6822F00E020A60016887
:100760000A6822F001020A601A4A0168914201D126
:10077000012121E0174A1432914201D110211BE0DE
:10078000144A2832914201D1891515E0114A3C32B0
:10079000914201D189140FE00E4A5032914202D1A8
:1007A0004FF4803108E00B4A6432914202D14FF499
:1007B000801101E04FF08071064A083A5160012132
:1007C00080F82110002180F82010416B01B188478A
:1007D000204610BD080002402DE9F05FC16B0C6897
:1007E00001680B68D0F840C0042202FA0CF2494DAF
:1007F000DFF824A1494E4A4FDFF828B1DFF828E19D
:1008000022422CD05A072AD50A68920603D40A68D5
:1008100022F004020A600168A94201D1042219E011
:10082000514501D1402215E0B14202D14FF480621E
:1008300010E0B94202D14FF480420BE0594502D199
:100840004FF4802206E0714502D14FF4800201E0AE
:100850004FF080622F4908394A60C16A3BE04FF08F
:10086000020808FA0CF818EA040F4FF000094FF0DC
:10087000010235D05FEA837832D50B689B0605D438
:100880000B6823F00A030B6080F821200168A9425D
:1008900001D1022219E0514501D1202215E0B142D7
:1008A00002D14FF4007210E0B94202D14FF400526D
:1008B0000BE0594502D14FF4003206E0714502D1F8
:1008C0004FF4001201E04FF00072124908394A60FB
:1008D00080F82090816A00291AD0BDE8F05F0847AF
:1008E000082505FA0CF5254212D01B0710D50B6818
:1008F00023F00E030B6090F84010C36B02FA01F175
:100900005960826380F8212080F82090016BE2E733
:10091000BDE8F09F080002401C0002403000024089
:1009200044000240580002406C00024030B528B339
:1009300008C8134914221944B1FBF2F18900C163BC
:1009400010498163022141771A6843F6F0718A43A6
:10095000D0E900142143D0E902452C432143046926
:1009600021434469214384692143114319600021D3
:100970004163012242770177084630BD012030BD36
:10098000F8FFFDBF000002402DE9F84FDFF8B891F5
:100990000024A9F1040B23460F2709F1040AABF147
:1009A000040EC9E00125A5402A40AA427DD1674E28
:1009B000D1F804C0ACEB0608B44532D014DCBCF16D
:1009C000030F3AD009DCBCF1000F2AD0BCF1010FB3
:1009D0001CD0BCF1020F31D11DE0BCF1110F17D0BA
:1009E000BCF1120F2AD119E0B8F5881F19D006DC26
:1009F000B8F5803F15D0B8F5801F1FD111E0B8F5CC
:100A0000001F0ED0B8F5041F18D10AE0CB6815E01E
:100A1000CB681B1D12E0CB6808330FE0CB680C33AA
:100A20000CE08B682BB1012B4FF0080303D045611C
:100A300004E0042302E0056100E00023FF2A01D85E
:100A4000064601E000F104064FEA840501D9A5F14C
:100A50002005D6F8008007FA05FC28EA0C0803FAFE
:100A600005F548EA0508C6F800804D68ED0062D536
:100A7000374DAE6946F00106AE61AD6924F003065C
:100A800005F001050095334D06EB050CDCF8085028
:100A9000A607360F07FA06F825EA0805DFF8B8803A
:100AA000404503D14FF0000817E044E0DFF8AC8088
:100AB000404502D14FF001080FE0DFF8A480404527
:100AC00002D14FF0020808E0DFF89880404502D1DB
:100AD0004FF0030801E04FF0040808FA06F848EA6E
:100AE0000508CCF808804D68D9F80060ED024D4645
:100AF00001D5164300E096432E604D68DAF8006099
:100B0000AD02554601D5164300E096432E604D6870
:100B1000DBF80060AD035D4601D5164300E0964367
:100B20002E604D68DEF80060ED03754601D5164372
:100B300000E096432E60641C0D682A46E5407FF471
:100B400031AFBDE8F88F000008040140000011102B
:100B5000001002400000014000080140000C01406C
:100B600000100140001401408068084000D00120BE
:100B70007047C26821EA02030A4043EA0241016168
:100B800070470AB1016170470904FBE701488068BA
:100B9000704700000C000020024881680278114470
:100BA000816070470C000020074810B5016841F0D3
:100BB00010010160032000F0A1F80F2000F006F8FA
:100BC00000F04AF8002010BD0020024030B5054674
:100BD0001C4887B0816941F400618161806906A980
:100BE00000F40060009001A800F030F900F05EF918
:100BF0001549164AB0FBF1F11548491E02604160E3
:100C000040F2E7320021C0E903218160816100F0F8
:100C100049FB040012D10E4800F0A2FB04000DD1E4
:100C2000192000F03DF8102D07D200222946192086
:100C300000F044F80748056000E0012407B02046B2
:100C400030BD00000010024040420F00002C014067
:100C5000B4010020100000200F4808B5816941F060
:100C600001018161816901F001010091C16941F0D7
:100C70008051C161C069002200F0805000900F21B6
:100C8000901E00F01BF80548416821F0E06141F03A
:100C90000071416008BD00000010024000000140EA
:100CA000002809DB00F01F0201219140400980006B
:100CB00000F1E020C0F8001170470000F0B40E4BC6
:100CC0001B680C46C3F30223C3F10705042D00D9AA
:100CD0000425191D072901D2002300E0DB1E01268F
:100CE00006FA05F1491E214099409E40761E1640A5
:100CF0003143F0BC01F0FFB90CED00E0064900F013
:100D0000070208684FF6FF03184040EA0220034A32
:100D100010430860704700000CED00E00000FA0589
:100D20002DE9F0470F46050061D0434E306800F0D2
:100D30000700B84209D2306820F00700384330601D
:100D4000306800F00700B84251D128683B4C810759
:100D500012D5400703D5606840F4E06060602878F1
:100D6000000703D5606840F4605060606068A9685F
:100D700020F0F000084360602878C00728D0686839
:100D8000012810D02168022810D0890700292EDA06
:100D9000616821F0030101436160FFF7F7FE8046BF
:100DA00041F288390DE021688903EFE78901EDE719
:100DB000FFF7ECFEA0EB0801494502D90320BDE88E
:100DC000F0876068696800F00C00B0EB810FEFD12C
:100DD000306800F00700B8420BD9306820F00700F7
:100DE00038433060306800F00700B84201D001207D
:100DF000E5E72878400705D56068E96820F4E060F9
:100E0000084360602878000706D56068296920F4E7
:100E1000605040EAC100606000F058F86168084A1C
:100E2000C1F30311515CC8400649086006480068D8
:100E3000FFF7CCFE0020C2E7002002400010024075
:100E4000423A000818000020100000200F22026023
:100E50000C4A536803F003034360536803F0F00344
:100E60008360536803F4E063C36052684FF4E06347
:100E700003EAD20202610448006800F0070008603B
:100E8000704700000010024000200240044805495D
:100E900000684968044AC1F30221515CC8407047A8
:100EA0001800002000100240523A0008044805498A
:100EB00000684968044AC1F3C221515CC8407047C8
:100EC0001800002000100240523A00080E4A5168F3
:100ED0000E4801F00C03042B11D0082B0FD10C4845
:100EE000C1F38343C903C05C0AD55168084AC1F302
:100EF0004041921E515C054A5043B0FBF1F07047EF
:100F000004494843704700000010024000127A0074
:100F1000323A000800093D002DE9F84F040070D076
:100F20002078C04DC00749D06868C0F3810001280F
:100F300007D06868C0F38100022809D16868C0033F
:100F400006D52868800339D560680028E7D035E0E9
:100F50006068B0F5803F0BD010B1B0F5A02F11D074
:100F6000286820F480302860286820F4802002E07F
:100F7000286840F480302860606890B1FFF706FE72
:100F800006460AE0286840F480202860F0E700BFA9
:100F9000FFF7FCFD801B642873D828688003F7D511
:100FA0000CE0FFF7F3FD064605E000BFFFF7EEFD9E
:100FB000801B6428F0D828688003F7D420789A4EE4
:100FC00080074FF001094FF0000839D5686810F02C
:100FD0000C0F07D06868C0F38100022809D1686847
:100FE000C00306D42868800714D52069012808D1D9
:100FF00010E02069B0B1C6F80090FFF7C7FD0746C2
:1010000005E00AE1FFF7C2FDC01B0228C4D828682A
:101010008007F7D52868616920F0F80040EAC10030
:1010200028600DE0C6F80080FFF7B0FD074604E039
:10103000FFF7ACFDC01B022823D828688007F7D42F
:10104000207800072CD57948A169D9B1C0F8009063
:10105000FFF79CFD074604E0FFF798FDC01B022840
:101060000FD8686A8007F7D571484FF4FA510068C5
:10107000B0FBF1F0009000BF0098411E0091FAD241
:101080000EE080E0C0F80080FFF780FD074604E036
:10109000FFF77CFDC01B022875D8686A8007F7D46B
:1010A0002078400760D5E8690027C00008D4E869C7
:1010B00040F08050E861E869012700F0805000901E
:1010C0005C480168C90513D40168834641F4807106
:1010D0000160FFF75BFD824606E000BFFFF756FDAB
:1010E000A0EB0A0064284ED8DBF80000C005F5D557
:1010F000E06801280AD008B1052813D0286A20F03A
:1011000001002862286A20F0040002E0286A40F00A
:1011100001002862E06841F2883B98B1FFF736FD94
:1011200082460BE0286A40F004002862EEE700BF28
:10113000FFF72CFDA0EB0A0159455AD8286A800711
:10114000F6D50CE0FFF722FD824605E0FFF71EFD15
:10115000A0EB0A0159454CD8286A8007F6D41FB184
:10116000E86920F08050E861E06988B36968C1F3FC
:101170008101022944D00228C6F8608004D0FFF71C
:1011800005FD044638E034E0FFF700FD074604E0C3
:10119000FFF7FCFCC01B02282BD828688001F7D47D
:1011A000206AB0F5803F05D16868A16820F400305E
:1011B00008436860D4E908010843696821F47411A0
:1011C00008436860C6F86090FFF7E0FC044606E05C
:1011D00025E000BFFFF7DAFC001B022809D82868C9
:1011E0008001F7D51BE000BFFFF7D0FC001B0228F1
:1011F00002D90320BDE8F88F28688001F4D40EE0FE
:101200000128F7D06868226A00F48031914204D145
:10121000616A00F47010884201D00120EAE70020E2
:10122000E8E7000000100240000042428004424211
:1012300018000020007000407047704770B590F8AB
:101240003C20012A26D0012480F83C40022280F86C
:101250003D2003685A689D6822F070060A68324390
:101260005A600D4B02689A4208D0B2F1804F05D007
:101270000A4B9A4202D00A4B9A4204D1496825F09F
:1012800080031943916080F83D40002180F83C10B4
:10129000084670BD022070BD002C014000040040D3
:1012A0000008004010B5040003D094F83D0010B1D0
:1012B00007E0012010BD002084F83C00204600F02B
:1012C0001FF8022084F83D00211D206800F00CFD6D
:1012D000012084F8460084F83E0084F83F0084F83A
:1012E000400084F8410084F8420084F8430084F808
:1012F000440084F8450084F83D00002010BD000043
:1013000038B505460068B0F1804F21D11148C16958
:1013100041F00101C161C069104C00F00100009072
:101320000D4820601020606000208021C4E9020187
:10133000490021618900C4E905104FF44050E06183
:101340002046FFF7F3FA08B1FFF7D5F9EC626562C2
:1013500038BD00000010024008000240E4000020F8
:1013600090F83D10012901D001207047022180F83A
:101370003D100168CA6842F00102CA6000680B496A
:10138000884208D0B0F1804F05D00949884202D088
:101390000849884204D1816801F00701062903D079
:1013A000016841F00101016000207047002C0140FC
:1013B000000400400008004070B5044690F83C006E
:1013C0000025012817D0012684F83C60022084F80B
:1013D0003D002068826822F0770222F47F4282601A
:1013E0000868502838D00DDC20284FD005DC90B399
:1013F000102811D14AE0022070BD302846D0402884
:101400000AD13BE060282FD070280DD0B0F5805F66
:1014100003D0B0F5005F12D0012584F83D600020B4
:1014200084F83C00284670BDCB68D1E901212068D2
:1014300000F096FC2068816841F0770109E0CB68F4
:10144000D1E90121206800F08BFC2068816841F41B
:1014500080418160E1E719E0CA684968206800F0CE
:1014600033FD5021206806E0CA684968206800F012
:101470003CFD6021206800F07DFCCEE7CA68496829
:10148000206800F021FD40212068F4E72268014631
:101490001046F0E770472DE9F04104460068C66841
:1014A00005694FF00007A90713D5B10711D5F91E3B
:1014B000016101202077206880698007204602D0E2
:1014C000FFF7E8FF04E000F0A3F8204600F035F94C
:1014D0002777680716D5700714D521686FF00400C8
:1014E0000861022020772068806910F4407F204640
:1014F00002D0FFF7CFFF04E000F08AF8204600F0AA
:101500001CF92777280715D5300713D521686FF008
:1015100008000861042020772068C0698007204601
:1015200002D0FFF7B7FF04E000F072F8204600F0A9
:1015300004F92777E80616D5F00614D521686FF070
:1015400010000861082020772068C06910F4407FEF
:10155000204602D0FFF79EFF04E000F059F8204635
:1015600000F0EBF82777E80708D0F00706D02168ED
:101570006FF001000861204600F0E0F8280608D569
:10158000300606D521686FF0800008612046FFF71D
:1015900053FE680608D5700606D521686FF0400036
:1015A0000861204600F0D4F8A8060AD5B00608D590
:1015B00021686FF0200008612046BDE8F041FFF788
:1015C0003CBEBDE8F081000000B585B0002100916F
:1015D0000191029103910068B0F1804F12D10A4845
:1015E000816941F0040181618069694600F004006D
:1015F00004900420009002200190032003900348EF
:10160000FFF7C2F905B000BD00100240000801401C
:10161000704770B5044690F83C0000260D4601283E
:101620000FD0012084F83C006AB1042A1DD0082A9A
:101630002FD00C2A3FD00126002084F83C003046F1
:1016400070BD022070BD206800F09CFB206881699D
:1016500041F0080181612068816921F00401816104
:10166000206881692A69114311E0206800F0B2FB0B
:101670002068816941F4006181612068816921F4F9
:1016800080618161206881692A6941EA0221816162
:10169000D2E7206800F0CAFB2068C16941F0080168
:1016A000C1612068C16921F00401C1612068C1697C
:1016B0002A69114311E0206800F0E4FB2068C16949
:1016C00041F40061C1612068C16921F48061C16198
:1016D0002068C1692A6941EA0221C161ACE710B5FD
:1016E000040003D094F83D0010B107E0012010BDC4
:1016F000002084F83C00204600F01EF8022084F808
:101700003D00211D206800F0EFFA012084F846001A
:1017100084F83E0084F83F0084F8400084F84100DB
:1017200084F8420084F8430084F8440084F84500BB
:1017300084F83D00002010BD7047704700680349E1
:10174000884201D1FFF728BA70470000002C014001
:101750007047704770470000F8B501680446086894
:10176000CA684B6910F00F0F4FF0000559D003F015
:10177000010602F49077374365D0C10705D0D10543
:1017800003D5616C41F001016164410705D5D907BA
:1017900003D0616C41F002016164810705D5D9076E
:1017A00003D0616C41F004016164010707D502F0C8
:1017B0002001314303D0616C41F008016164616C28
:1017C00000293AD0800604D5900602D5204600F0C4
:1017D000CDFB20684069616CC0F38010090700D41C
:1017E00060B3204600F09BFB20684069400621D58D
:1017F0002068143050E8001F21F0400140E800123A
:10180000002AF5D1E06BA8B16D494163E06BFEF7AA
:1018100097FF002811D0E06B416B01B0BDE8F040AC
:10182000084783060FD593060DD52046BDE8F8403E
:1018300000F09CBB2046FFF78DFFF8BD2046FFF768
:1018400089FF6564F8BD266B2023012E7CD1C60676
:101850007AD5D60678D508684868009048694FF070
:101860000206400640D5E16B086840680004000CA1
:10187000E8D0A28D8242E5D9E085886920282DD064
:1018800020680C3050E8001F21F4807140E80012FD
:10189000002AF5D12068143050E8001F21F0010122
:1018A00040E80012002AF5D12068143050E8001FEB
:1018B00021F0400140E80012002AF5D184F84230BE
:1018C000256320680C3050E8001F21F0100140E82B
:1018D0000012002AF5D1E06BFEF70FFF6663A08DC2
:1018E000E18D401A81B22AE0A08DE18D401A81B2CB
:1018F000E08D0028A6D00029A4D022680C3252E83E
:10190000000F20F4907042E80007002FF5D1206806
:10191000143050E8002F22F0010240E80027002F89
:10192000F5D184F84230256320680C3050E8002F50
:1019300022F0100240E80023002BF5D16663204618
:10194000FFF707FFF8BDFFE705062BD5150629D5DC
:1019500094F841002128F5D1A068B0F5805F01D14D
:101960002069B0B1206A411C21622168007848607A
:10197000E08C401E0004000CE084E3D12068C168C4
:1019800021F08001C1602068C16841F04001C16060
:10199000D8E7206A0088C0F308004860206A801CED
:1019A0002062E5E74006CDD55006CBD5CA68204673
:1019B00022F04002CA6084F8413000F090F8C1E79C
:1019C0000F1F000870B5040004D094F841000025F2
:1019D00010B106E0012070BD84F84050204600F0B0
:1019E00023F8242084F841002068C16821F40051C4
:1019F000C160204600F01CFB2068016921F4904181
:101A000001612068416921F02A0141612068C168B3
:101A100041F40051C1606564202084F8410084F8DD
:101A200042006563002070BD70B586B00025064693
:101A3000009501950295039500682349884240D19D
:101A40002249886940F480408861886900F48040B8
:101A50000490886940F00400886188691C4C00F09B
:101A60000400049048150090022001900320039088
:101A700069462046FEF788FF2015CDE90005694636
:101A800020460295FEF780FF134C1248C4E900057A
:101A90008020C4E9025020202561C4E905500002DD
:101AA000E0612046FEF742FF08B1FEF724FEF46332
:101AB0000022052125206662FFF700F92520FFF7A7
:101AC000EFF806B070BD0000003801400010024081
:101AD0000008014058000240700100207047704724
:101AE000FEE700000D4808B5416941F00101416180
:101AF0004069002200F00100009005210B20FFF753
:101B0000DDF80B20FFF7CCF8002205210F20FFF7AE
:101B1000D5F8BDE808400F20FFF7C2B8001002401A
:101B200010B5044A0021044800F08AFB034908600C
:101B300010BD00000C3A0008591C000808000020E5
:101B400000B585B000200190029003900C48816997
:101B500041F020018161816901F0200104918169D6
:101B600041F0040181618069694600F0040004903D
:101B7000012000900348FEF707FF05B000BD0000FC
:101B8000001002400008014010B58EB000240794F8
:101B9000089409940A940B941C2168460C94FEF74F
:101BA000ACFB1D484FF08041C0E900145921C0E949
:101BB0000241802104618161FFF774FB08B1FEF7E7
:101BC0009AFD4FF48050079007A91348FFF7F4FBE4
:101BD00008B1FEF790FD1048FFF781FD08B1FEF750
:101BE0008AFD0B940BA90C480C94FFF727FB08B156
:101BF000FEF781FD6020CDE90004029408226946C9
:101C000005480494FFF705FD08B1FEF774FD02488E
:101C1000FFF7DAFC0EB010BD9C0000200C4810B598
:101C20000A4901604FF4E1314160002181600C22DA
:101C3000C160C0E904128161C161FFF7C3FE0028E1
:101C400003D0BDE81040FEF756BD10BD003801407E
:101C500028010020FEE7FEE7012000F0B5FAFBE7CF
:101C600010B54FF0E020006901F01AFD012803D003
:101C7000BDE8104001F048BA10BD30B58FB0282142
:101C80006846FEF73AFB14210AA8FEF736FB01214D
:101C90000804CDE900100024029402250491CDE946
:101CA00007504FF4E01009906846FFF735F908B186
:101CB00072B6FEE70F20CDE90A054FF48060CDE94A
:101CC0000C4002210AA80E94FFF72AF8002801D040
:101CD00072B6FEE70FB030BD704700000148FFF755
:101CE000DABB0000B4010020F0B50268194B1A4CB1
:101CF0001A4D4FF08047984205D0B84203D0A04219
:101D000001D0A84203D122F070064A6832439842BB
:101D100005D0B84203D0A04201D0A84203D122F49A
:101D20004074CA6822434C6922F080022243026058
:101D30008A68C2620A688262984201D109690163B5
:101D4000012141610169C90703D0016921F0010145
:101D50000161F0BD002C014000040040000800407B
:101D600010B5846842EA032224F47F440A432243E4
:101D7000826010BD826822F070020A4342F00701BF
:101D80008160704730B5036A026A22F00102026284
:101D90004268846924F073050C682C4323F0020523
:101DA0008B682B430A4DA8420BD123F00805CB6862
:101DB00022F440722B434D6923F0040315438A69D2
:101DC0002A434260846149684163036230BD000078
:101DD000002C014030B5026A036A23F0100303624D
:101DE000436884690D6824F4E64444EA05248D6858
:101DF00022F0200242EA05120B4DA8420ED1CD6816
:101E000022F0800242EA05124D6923F4406343EA5E
:101E100085038D6922F0400243EA850343608461B3
:101E200049688163026230BD002C014030B5036A0D
:101E3000026A22F4807202624268C46923F4007369
:101E400024F073050C682C438D6843EA05230C4D80
:101E5000A8420ED1CD6823F4006343EA05234D69FF
:101E600022F4405242EA05128D6923F4806342EA6B
:101E700005124260C4614968C163036230BD00005D
:101E8000002C014030B5046A026A22F480520262DA
:101E90004268C3690D6823F4E64343EA05238D686D
:101EA00024F4005444EA0534064DA84204D14D6997
:101EB00022F4804242EA85124260C36149680164AB
:101EC000046230BD002C014010B5036A046A24F09E
:101ED00001040462846924F0F00444EA021423F04B
:101EE0000A020A438461026210BD10B5036A046AE3
:101EF00024F010040462846923F0A00324F47044E5
:101F000044EA023243EA01118261016210BD10B558
:101F1000406A0021C185C184FFF71CFC10BD016827
:101F20000C3151E8002F22F4907241E80023002B7D
:101F3000F5D10168143151E8002F22F0010241E887
:101F40000023002BF5D1016B012909D101680C3167
:101F500051E8002F22F0100241E80023002BF5D1B8
:101F6000202180F8421000210163704708B590F8E5
:101F70004210222901D0022008BD82684FF480530C
:101F80009A4201D1016921B1816A9A421BD04AB1BA
:101F90000AE00268816A5268C2F308020A80816A14
:101FA000891C08E0026972B10268526802F07F027F
:101FB0000A70816A491C8162C18D491E0904090C9D
:101FC000C18503D01BE002685268F1E70168CA6866
:101FD00022F02002CA600168CA6822F48072CA60D6
:101FE00001684A6922F001024A61202180F842100A
:101FF00000214163026B012A03D0FFF76FFD00202F
:1020000008BD016301680C3151E8002F22F0100275
:1020100041E80023002BF5D101680A68D20602D5F9
:102020000A6849680091818DFFF793FBE7E700009C
:1020300070B5044600680169E26821F4405111431B
:1020400001612169A0680843616908432168CA6881
:1020500041F20C639A430243CA6020684169A26955
:1020600021F44071114341611E492068884202D128
:10207000FEF71CFF01E0FEF709FF00EBC00101EBDA
:102080000012606864218000B2FBF0F3B3FBF1F34F
:102090006FF018067343B2FBF0F5B2FBF0F605EBF8
:1020A0008305322303EB0515B5FBF1F5B6FBF1F61D
:1020B00005F0F00505EB0615B2FBF0F6B2FBF0F00B
:1020C000B0FBF1F06FF01802504306EB800003EB19
:1020D0000010B0FBF1F0216800F00F002844886088
:1020E00070BD0000003801400148FFF735BB00001B
:1020F00028010020FEE70907090E002804DB00F193
:10210000E02080F80014704700F00F0000F1E0209C
:1021100080F8141D70470000064A10B55368064940
:10212000064C0968B1FBF4F141435068C01A88427B
:10213000FBD310BD001000E01800002040420F004B
:10214000AFF30080704700000EB5FEF72DFDFFF7DE
:1021500094FDFEF7BDFAFFF7F3FCFFF7F1FCFFF784
:10216000C1FCFFF75BFDFFF70FFD00210120CDE96A
:1021700000010B4680220CA10E4801F039FA02A999
:102180000320CDE9000100234FF480720AA10D481D
:1021900001F02EFA00F0E6FE00F024F8FFF7C0FC94
:1021A00000F032F8FEE7000073656E736F725F74C3
:1021B00061736B00612B00086C65645F7461736B05
:1021C000000000004121000810B5EFF3058111B1B6
:1021D0006FF0050403E0002408B100F015FE20466E
:1021E00010BD0000EFF3058010B16FF005007047DF
:1021F0000448016811B14FF0FF30704701210160C0
:10220000002070476C00002010B5EFF3058010B17E
:102210006FF0050010BD08480168012902D04FF099
:10222000FF3010BD054A002182F8141D0221016013
:1022300000F098FE002010BD6C0000200BE000E0D4
:102240002DE9FF414FEA01034FF00005EFF305814F
:10225000039549BB40B38027182100244AB3166870
:1022600006B1344696691EB13146761E382E02D22A
:102270001679F60703D0002004B0BDE8F081566956
:1022800006B1B708D2F808C0BCF1000F0DD0D56870
:102290005C2D18D312693AB136B18DE806103A4672
:1022A000214601F0D2F903900DE0D6685EB91269BB
:1022B0004AB903AACDE90012BAB2214601F098F951
:1022C000012800D003950398D6E700002DE9F041DE
:1022D000134C0F460546E6682068001D00F060FCC0
:1022E000681C07D137B12168BDE8F0410D48091DD0
:1022F00000F0A6BC20683544B5424560216805D28F
:10230000A06BBDE8F041091D00F082BC606B091DA7
:1023100000F07EFCA06A854200D2A562BDE8F08193
:102320001C000020EC0600202DE9F041054600F0DD
:1023300093FC2D4CA068401CA06020682B4F10B16E
:10234000606930B32BE02560A068012827D1002602
:1023500006EB860007EB800000F04CFC761C382E64
:10236000F6D3234800F046FC2148143000F042FC2C
:102370001F48283000F03EFC1D483C3000F03AFC7D
:102380001B48503000F036FC194860631430A063DD
:1023900005E02068E96AC06A884200D82560606A62
:1023A000401C60626864E86A2169884200D9206143
:1023B00000EB800007EB8000291D00F041FC00F0DD
:1023C0006BFC606900280CD02068E96AC06A88420A
:1023D00007D208494FF080500860BFF34F8FBFF31A
:1023E0006F8FBDE8F08100001C0000203C0200203F
:1023F0009C06002004ED00E038B500F02DFC104CE8
:102400002068C8B90F4800F0F5FB0E48143000F002
:10241000F1FB0C48E060143020610A4B0020F03BD7
:10242000009003F1500210210A2000F083FE20608A
:1024300010B105A100F0B2FCBDE8384000F02CBCA2
:1024400058000020F0070020546D72510000000079
:1024500030B4026C0B46002A0BD0C1681144C16035
:102460008468A14201D30168C16030BC1846FDF701
:10247000F7BE30BC70472DE9F041856B1746044626
:102480000026026C82B1C7B1E068FDF7E9FEE168A1
:10249000206C091AE1602268914202D2A168081AF0
:1024A000E060022F16D017E02068A8B9A06801F0FC
:1024B0006FF906460020A0600EE06068FDF7D0FED0
:1024C000216C606808446060A168884204D3206879
:1024D000606001E005B16D1E6D1CA5633046BDE86E
:1024E000F08110B5044690F8590058B101280CD07D
:1024F00002280FD0502080F31188BFF34F8FBFF315
:102500006F8FFEE7206B00F0DBFB2046BDE810403C
:1025100000F0D6BB10BD000010484FF440614207E8
:1025200006D0C01D0D4920F00700411AC1F54061D9
:102530000B4A00230144C2E900030839183A21F08C
:10254000070111604B600B600B1AC0E90013936028
:102550004FF000405360506170470000D00E0020E3
:1025600088000020144E154CA6F29C474FF080586E
:10257000DFF84C9012E000BF00F06EFBF068C56819
:10258000281D00F00DFBA068401EA0606068401E82
:10259000606000F081FB2846FFF7A3FF6068002819
:1025A000EAD138680128F9D9C9F80080BFF34F8F04
:1025B000BFF36F8FF2E70000D80600201C00002058
:1025C00004ED00E070B51D46049C51B1C4F8002034
:1025D000C4E90F010121204600F0E0FD84F84C50D1
:1025E00070BD2460F4E700002DE9F05F8846DDE966
:1025F0000B941546834691009A460A9EA522206BAD
:10260000FDF773FE6FF00301206B01EB85010844B9
:1026100020F00707780707D0502080F31188BFF318
:102620004F8FBFF36F8FFEE70025B8F1000F0FD07B
:102630005FF00000221818F8001082F8341018F823
:10264000001011B1401C1028F4D384F8435001E06D
:1026500084F83450382E00D33726E662C4E9136577
:10266000201D00F0D2FA04F1180000F0CEFA246127
:10267000C6F138006462A061656584F8585052461E
:102680005946384600F05AFA2060B9F1000F01D0DF
:10269000C9F80040BDE8F09F30B5114900E011468F
:1026A0000A688242FBD34B685C18844203D14068BD
:1026B00018444860084643681C18944209D1084CE5
:1026C000183C2468A24209D052681A4442600A6841
:1026D00012680260814200D0086030BD0460F9E7F2
:1026E0008800002070B5002441600B4D00619142CC
:1026F00006D8D11A8269914206D2011D286907E0E5
:102700009A4203D2994201D3012403E0011DE868F3
:1027100000F07EFA204670BD5800002010B5044637
:1027200000F09AFAA06B28B15FF0000400F0B4FA50
:10273000204610BD0124F9E730B589B03C4D6EE06C
:102740000498002806DADDE90601059A9047049806
:10275000002864DB069C606910B1201D00F020FA9F
:1027600003A800F0D7F8024604980A2857D2DFE8F9
:1027700000F00505052D334A05052D3394F8280092
:1027800040F0010084F828000599A069059B0144E8
:102790002046FFF7A7FF68B3216A2046884794F8D0
:1027A000280040073BD5002000900598A169002330
:1027B00042181946204601F0F5F8D8B9502080F3A8
:1027C0001188BFF34F8FBFF36F8FFEE714F8280F08
:1027D00020F00100207022E094F8280040F0010071
:1027E00084F828000598A06128B181181346204676
:1027F000FFF778FF13E0502080F31188BFF34F8F6D
:10280000BFF36F8FFEE794F82800810703D42046BA
:1028100000F056FA03E020F0010084F828000022BE
:1028200004A9286800F00EFE002889D109B030BD47
:10283000580000202DE9FC410F46054600F0D6FB6C
:1028400001A800F067F80446019818B101F018F8E3
:10285000BDE8FC81254EAFB130690068D0B30027D8
:10286000291B3A46306800F0ADFA01F009F800285B
:10287000EED11F494FF080500860BFF34F8FBFF378
:102880006F8FE5E7A542EBD800F0FAFFF068274626
:10289000C068C468201D00F083F994F8280041073F
:1028A00019D5A0692B4641193A462046FFF71AFF71
:1028B000A8B100200346014600902A46204601F0B8
:1028C00071F860B9502080F31188BFF34F8FBFF3C8
:1028D0006F8FFEE707E020F0010084F82800216AEE
:1028E00020468847B4E70127BAE7000058000020D7
:1028F00004ED00E00648416B096829B1416BC968E5
:10290000C9684968816270474FF0FF31FAE70000FB
:102910001C00002070B5054600F0D0FE064E0446AF
:10292000B068844203D200F009F8012000E00020E2
:1029300028602046B46070BD58000020F8B5194DDD
:1029400020E0C068C4680668201D00F029F9216AEB
:102950002046884794F82800400713D5A0693044E2
:10296000B04206D924616060211DE86800F050F98A
:1029700008E000200346014600903246204601F060
:1029800011F838B1E86801680029DAD12969C5E988
:102990000310F8BD502080F31188BFF34F8FBFF3B1
:1029A0006F8FFEE75800002008484068401C4FF039
:1029B000500080F3118804D0BFF34F8FBFF36F8FA7
:1029C000FEE7BFF34F8FBFF36F8FFEE7900000204D
:1029D000074CE068016841B1C0680021D0F80000F0
:1029E000FFF728FFFFF7A8FEF3E701210020F7E734
:1029F000580000202DE9F041044600F02DF994F92B
:102A0000455004F1240609E0606A48B1304600F000
:102A1000FFFE08B100F06CFA6D1E6DB2002DF3DC04
:102A20004FF0FF3684F8456000F036F900F014F9F5
:102A300094F9445004F1100709E0206948B1384680
:102A400000F0E6FE08B100F053FA6D1E6DB2002DE5
:102A5000F3DC84F84460BDE8F04100F01DB90000EB
:102A60002DE9F0410546002700F0C0FA324E3068EB
:102A700008B9FFF751FD706905424ED1C5B308355D
:102A800068070ED005F00700C0F10800054468078C
:102A900007D0502080F31188BFF34F8FBFF36F8FA3
:102AA000FEE72DB37068854237D8234818300146B9
:102AB0000C6801E020460C466168A94202D22168F8
:102AC0000029F7D131688C4227D00768216801605E
:102AD00060680837411B10290FD96019420708D0D8
:102AE000502080F31188BFF34F8FBFF36F8FFEE745
:102AF00013E041606560FFF7CFFD61687068401AC0
:102B00007060B268904200D2B060706901430020EA
:102B1000C4E90001F068401CF06000F0B1FE7807E5
:102B200007D0502080F31188BFF34F8FBFF36F8F12
:102B3000FEE73846BDE8F0817000002010B5031FA5
:102B40004FF080741C601B1F21F001011960191FD8
:102B5000024B0B60143940380A6010BDA9290008E7
:102B6000AFF3008001220C4D08B5540321462846DE
:102B7000FEF707F800F0A2FD41F288360090074802
:102B8000FDF73AFD21462846FDF7F3FF314668463A
:102B900000F060F9F3E700000010014000000020A1
:102BA000D0E9013201699A60D0E901235A604A688C
:102BB000824201D182684A60002202610868401E98
:102BC0000860086870470000034B036003F15C0075
:102BD000086080201060704718080020044B0360D4
:102BE00003F15C0008604FF48070106070470000D3
:102BF000740A002000F108014FF0FF32C0E9011211
:102C0000C1600161002101607047002101617047CE
:102C100030B50B685A1C02D000F1080202E00269CC
:102C200004E02246546825689D42FAD953684B60F7
:102C300099608A60516008610168491C016030BD7B
:102C400042684A6093688B6093685960916008613C
:102C50000168491C01607047502080F31188BFF360
:102C60004F8FBFF36F8F0A494868401C48600128A6
:102C70000CD10848006810F0FF0F07D0502080F3F7
:102C80001188BFF34F8FBFF36F8FFEE770470000CF
:102C90009000002004ED00E00849486828B1401E7B
:102CA000486001D180F311887047502080F311886B
:102CB000BFF34F8FBFF36F8FFEE70000900000203F
:102CC00070B500282AD0164DA0F108046068696923
:102CD000084207D1502080F31188BFF34F8FBFF314
:102CE0006F8FFEE722683AB1502080F31188BFF35E
:102CF0004F8FBFF36F8FFEE78843606000F076F977
:102D000060686968084468602046FFF7C5FC286968
:102D1000401C2861BDE8704000F0B2BD70BD0000ED
:102D2000700000204FF0E020002101618161054921
:102D30004FF47A720968B1FBF2F1491E4161072133
:102D4000016170471800002010B5FDF765FA1149C0
:102D500010280ED300F1E02090F8F0030A7890429A
:102D600007D2502080F31188BFF34F8FBFF36F8FCE
:102D7000FEE709480068896800F4E060884207D9E6
:102D8000502080F31188BFF34F8FBFF36F8FFEE7A2
:102D900010BD0000900000200CED00E010B5084BC5
:102DA000002200BF53F832401CB1521C082AF9D34C
:102DB00010BD43F8321003EBC201486010BD0000A3
:102DC000FC01002070B515460E460446FFF744FF8F
:102DD00094F944100020491C01D184F8440094F96E
:102DE0004510491C01D184F84500FFF755FFA06B41
:102DF00028B92A46314604F1240000F097F820460D
:102E0000BDE87040FFF7F6BD10B5020014D00F48C2
:102E1000006B38B1502080F31188BFF34F8FBFF3A0
:102E20006F8FFEE700F0E2F800211046FFF74EFA40
:102E300000F026FD002807D105494FF080500860BA
:102E4000BFF34F8FBFF36F8F10BD00001C00002039
:102E500004ED00E070B50D4604000BD095B11E4A9C
:102E6000106BB8B1502080F31188BFF34F8FBFF3C0
:102E70006F8FFEE7502080F31188BFF34F8FBFF3B1
:102E80006F8FFEE7502080F31188BFF34F8FBFF3A1
:102E90006F8FFEE700F0AAF8D268236859199342B1
:102EA00004D98B420AD9914202D807E08B42FAD961
:102EB000881A21600021FFF709FA00E0216000F084
:102EC000DFFC002807D105494FF080500860BFF3B0
:102ED0004F8FBFF36F8F70BD1C00002004ED00E02A
:102EE00002490A6A0260C968416070471C000020FC
:102EF00001490120C86170471C00002010B50C4634
:102F000050B1094909681831FFF782FE2046BDE833
:102F100010400121FFF7DAB9502080F31188BFF388
:102F20004F8FBFF36F8FFEE71C00002070B5144673
:102F30000D4668B10A4909681831FFF781FE0CB1E6
:102F40004FF0FF3521462846BDE87040FFF7BEB977
:102F5000502080F31188BFF34F8FBFF36F8FFEE7D0
:102F60001C00002030B587B00024039405AA04A9F2
:102F700003A80494FFF728FEDDE903010094CDE9DE
:102F80000110002315A11748059A00F05EFB164DAD
:102F90000028E8621FD000F0D5FC012809D0401CB1
:102FA00019D1502080F31188BFF34F8FBFF36F8F7B
:102FB000FEE7502080F31188BFF34F8FBFF36F8F70
:102FC0004FF0FF30A86201206861EC6007B0BDE8F7
:102FD000304000F045B807B030BD000049444C45D2
:102FE00000000000652500081C0000200248016B5D
:102FF000491C0163704700001C000020164810B5F2
:10300000016B11B10121C16110BD0021C1610169D4
:10301000124A01E0B9B1491E01EB810352F8233095
:10302000002BF7D001EB810302EB830202F10804CD
:1030300053685B685360A34201D15B685360DA68F0
:103040000260016110BD502080F31188BFF34F8FE3
:10305000BFF36F8FFEE700001C0000203C02002041
:103060001CB5264908780190FF20087008788DF873
:1030700000009DF800009DF8002000F0F000904254
:1030800007D0502080F31188BFF34F8FBFF36F8FAD
:10309000FEE79DF800001A4C00F050002070072059
:1030A000A06005E09DF8002052008DF80020401E31
:1030B0009DF800201206F5D4A060032807D0502008
:1030C00080F31188BFF34F8FBFF36F8FFEE74FF48C
:1030D0004070A060019808700A48016841F47001CE
:1030E0000160016841F070410160FFF71BFE0020A4
:1030F0006060FDF75BF800201CBD000000E400E00C
:103100009000002020ED00E010B5502080F31188E1
:10311000BFF34F8FBFF36F8F00F0D6FA18B1044999
:103120004FF080500860002080F3118810BD00002F
:1031300004ED00E038B5049D18B153B1CAB181B1B6
:1031400020E0502080F31188BFF34F8FBFF36F8FC3
:10315000FEE7502080F31188BFF34F8FBFF36F8FCE
:10316000FEE7502080F31188BFF34F8FBFF36F8FBE
:10317000FEE739B1502080F31188BFF34F8FBFF3C2
:103180006F8FFEE750241C46012384F846302B46FF
:103190000094FFF717FA204638BD000070B50D46C1
:1031A000040025D0FFF758FDD4E90F20216802FB69
:1031B0000011A1600021A163216861600A46D4E981
:1031C0000F01401E00FB0121E16021464FF0FF305E
:1031D00001F8440F487004F110008DB1FFF70AFDAB
:1031E00004F12400FFF706FDFFF756FD012070BD36
:1031F000502080F31188BFF34F8FBFF36F8FFEE72E
:1032000021690029F0D000F003FB0028ECD004492C
:103210004FF080500860BFF34F8FBFF36F8FE3E72D
:1032200004ED00E02DE9FF4782B01D468A464FF0CD
:103230000008040003D0BAF1000F08D011E05020BC
:1032400080F31188BFF34F8FBFF36F8FFEE7206CC1
:1032500038B1502080F31188BFF34F8FBFF36F8FC9
:10326000FEE7022D0AD1E06B012807D0502080F341
:103270001188BFF34F8FBFF36F8FFEE700F010FA96
:103280003F4F4FF000094FF0805648B9049838B1CD
:10329000502080F31188BFF34F8FBFF36F8FFEE78D
:1032A000FFF7DAFCA06BE16B884207D3022D05D053
:1032B0000498D0B1B8F1000F1AD01EE02A4651464A
:1032C0002046FFF7D8F8616A19B104F1240000F034
:1032D0009FFA20B13E60BFF34F8FBFF36F8FFFF7B0
:1032E000DBFC012006B0BDE8F087FFF7D5FC22E04B
:1032F0006846FFF7F5FD4FF00108FFF7CDFCFFF73B
:1033000075FEFFF7A9FC94F94400401C01D184F834
:10331000449094F94500401C01D184F84590FFF792
:10332000BBFC04A9684600F029F930B12046FFF73C
:1033300061FB00F0A5FA0020D4E7FFF78DFCA06B3D
:10334000E16B884213D1FFF7A7FC04F11000049948
:10335000FFF7D4FD2046FFF74DFB00F091FA00285F
:103360009ED13E60BFF34F8FBFF36F8F98E7FFF79B
:1033700093FC2046FFF73EFB00F082FA90E7000046
:1033800004ED00E02DE9F0471F4690468946040011
:1033900003D0B9F1000F08D011E0502080F311885C
:1033A000BFF34F8FBFF36F8FFEE7206C38B1502013
:1033B00080F31188BFF34F8FBFF36F8FFEE7022FAB
:1033C0000AD1E06B012807D0502080F31188BFF3A9
:1033D0004F8FBFF36F8FFEE7FFF7B6FC5020EFF380
:1033E000118680F31188BFF34F8FBFF36F8FA06BEF
:1033F000E16B884206D3022F04D0002086F31188A7
:10340000BDE8F08794F94550A06B3A4649462046FE
:10341000FFF731F8681C04D06D1C84F8455001207A
:10342000ECE7606A0028FAD004F1240000F0F0F91B
:103430000028F4D0B8F1000FF1D00121C8F8001035
:10344000EDE700002DE9F747002683B08A46040027
:1034500003D0BAF1000F08D011E0502080F311889A
:10346000BFF34F8FBFF36F8FFEE7206C38B1502052
:1034700080F31188BFF34F8FBFF36F8FFEE700F02B
:103480000FF9DFF8F4804FF000094FF0805748B98A
:10349000059838B1502080F31188BFF34F8FBFF3E8
:1034A0006F8FFEE7FFF7D8FBA56BC5B151462046ED
:1034B000FEF7CEFF6D1EA563206950B104F1100028
:1034C00000F0A6F928B1C8F80070BFF34F8FBFF322
:1034D0006F8FFFF7E1FB012006B0BDE8F08705988C
:1034E00008B11EB106E0FFF7D7FB27E06846FFF7FB
:1034F000F7FC0126FFF7D0FBFFF778FDFFF7ACFBE9
:1035000094F94400401C01D184F8449094F945009A
:10351000401C01D184F84590FFF7BEFB05A9684621
:1035200000F02CF8002820460AD0FFF763FA00F0DC
:10353000A7F92046FFF7F2F80028B3D00020CBE728
:10354000FFF7ECF890B104F124000599FFF7D6FCE1
:103550002046FFF74FFA00F093F90028A2D1C8F8EF
:103560000070BFF34F8FBFF36F8F9BE72046FFF7CD
:1035700041FA00F085F995E704ED00E02DE9F0410E
:103580000C46050011D0C4B1FFF766FB174BDA6893
:103590006E682068911B471C17D02F681B6A9F42DA
:1035A00019D0964217D8012410E0502080F31188DA
:1035B000BFF34F8FBFF36F8FFEE7502080F311886A
:1035C000BFF34F8FBFF36F8FFEE70024FFF764FB5D
:1035D0002046BDE8F081884205D9401A206028467F
:1035E000FFF77EFCF1E700202060DCE71C000020F4
:1035F0002DE9FF5F8346DDE90E87994616468A4628
:103600009000FFF72DFA05001CD05C20FFF728FA88
:10361000040014D00020256384F85900CDE902404D
:10362000CDE900874B46324651465846FEF7DCFF4F
:103630002046FEF779FE012004B0BDE8F09F284641
:10364000FFF73EFB4FF0FF30F6E7F0B585B0DDE960
:103650000B640A9DA6B1DCB15C27009726630226A5
:1036600084F85960002604AFCDE90246CDE9005741
:10367000FEF7BAFF2046FEF757FE049805B0F0BDEE
:10368000502080F31188BFF34F8FBFF36F8FFEE799
:10369000502080F31188BFF34F8FBFF36F8FFEE789
:1036A0000548416919B1006B18B10020704701202D
:1036B00070470220704700001C0000200148C068CD
:1036C000704700001C0000202DE9F0412E4C00271F
:1036D000206B28B1A069401CA0613846BDE8F0818C
:1036E000E668761CE66013D1606B006838B1502044
:1036F00080F31188BFF34F8FBFF36F8FFEE7606BCE
:10370000A16B6163A063206A401C2062FFF7F2F89E
:10371000A06ADFF87880864209D3606B0068A0B1A8
:10372000606BC068C5686868864211D2A062206874
:10373000C06A00EB800158F82100012800D9012758
:10374000E0690028C9D00127C7E74FF0FF30EDE757
:10375000281DFFF725FAA86A18B105F11800FFF730
:103760001FFAE86A2169884200D9206100EB8001D4
:1037700008EB8100291DFFF763FAE86A2168C96A2E
:103780008842CAD30127C8E71C0000203C02002061
:1037900070B504004FF0000133D01B4D28688442FF
:1037A00007D0502080F31188BFF34F8FBFF36F8F86
:1037B000FEE7206D38B1401E2065E36CE26A9A4254
:1037C0001FD040B11DE0502080F31188BFF34F8F10
:1037D000BFF36F8FFEE7201DFFF7E2F9E06CE062B8
:1037E000C0F13800A061E06A2969884200D92861E7
:1037F000064900EB800001EB8000211DFFF720FA55
:103800000121084670BD00001C0000203C02002081
:1038100070B5C068C46854B104F118000646FFF7DB
:10382000BFF9144D286B50B13146134815E05020B4
:1038300080F31188BFF34F8FBFF36F8FFEE7201D1A
:10384000FFF7AEF9E06A2969884200D928610B497F
:1038500000EB800001EB8000211DFFF7F1F9E06A29
:103860002968C96A884202D90120E86170BD002038
:1038700070BD00001C000020C40600203C02002097
:103880002DE9F0472C4D00242746286B38B1FFF76F
:10389000E3F9286B401E2863286B40B146E05020B6
:1038A00080F31188BFF34F8FBFF36F8FFEE7A968D6
:1038B000224E0120D1B3A6F5916980463068E0B16F
:1038C000F068C46804F11800FFF76AF9201DFFF7DB
:1038D00067F9E06A2969884200D9286100EB800114
:1038E00009EB8100211DFFF7ABF9E06A2968C96A7D
:1038F0008842E3D3C5F81C80E0E70CB1FEF7FAFF7D
:10390000AC694CB14FEA0806FFF7DEFE00B1EE618C
:10391000641EF9D10020A861E86938B1084901277F
:1039200038070860BFF34F8FBFF36F8FFFF7B4F90D
:103930003846BDE8F08700001C000020C4060020C7
:1039400004ED00E010B586B0FEF756FD114C20687E
:10395000B8B100200390049005AA04A903A8FFF7BA
:103960003DF9DDE9032102208DE8070000230AA1CB
:103970000B48059AFFF769FE606010B106B00120A0
:1039800010BD502080F31188BFF34F8FBFF36F8FAE
:10399000FEE7000058000020546D7220537663004B
:1039A000D12900082DE9FF411E46134602000A9D59
:1039B0004FF0000016D0144C2768002F0FD0CDE92F
:1039C00000130292062917DAFFF76AFE02284FF069
:1039D00000030FD0002269462068FFF723FC04B0E3
:1039E000BDE8F081502080F31188BFF34F8FBFF303
:1039F0006F8FFEE72A46EEE70023324669463846D7
:103A0000FFF7C0FCEBE70000580000205C3A00081C
:103A100000000000000000000000000000000000A6
:103A2000000200001800000000000000000000007C
:103A3000010202030405060708090A0B0C0D0E0F0C
:103A4000101000000000000000000102030406073F
:103A500008090000000001020304000064656661BB
:103A6000756C745461736B00883A00080000002084
:103A70009C00000028010008243B00089C00002056
:103A80009420000044010008000000000000000035
:103A90000000000001000000100000000000000015
:103AA00000127A000000000000000000000000008A
:103AB0000000000000000000000000000000000006
:103AC00000000000000000000000000000000000F6
:103AD00000000000000000000000000000000000E6
:103AE00000000000000000000000000000000000D6
:103AF00000000000000000000000000000000000C6
:103B000000000000000000000000000000000000B5
:103B1000000000000000000000000000AAAAAAAAFD
:043B200000000000A1
:04000005080000ED02
:00000001FF
